{
	"contracts/Assert.sol": {
		"Assert": {
			"abi": [
				{
					"inputs": [
						{
							"internalType": "address payable",
							"name": "addr1",
							"type": "address"
						},
						{
							"internalType": "address payable",
							"name": "addr2",
							"type": "address"
						}
					],
					"name": "splitBalance",
					"outputs": [],
					"stateMutability": "payable",
					"type": "function"
				},
				{
					"inputs": [],
					"name": "testAssert",
					"outputs": [],
					"stateMutability": "nonpayable",
					"type": "function"
				}
			],
			"devdoc": {
				"kind": "dev",
				"methods": {},
				"version": 1
			},
			"evm": {
				"assembly": "    /* \"contracts/Assert.sol\":66:503  contract Assert {... */\n  mstore(0x40, 0x80)\n  callvalue\n  dup1\n  iszero\n  tag_1\n  jumpi\n  0x00\n  dup1\n  revert\ntag_1:\n  pop\n  dataSize(sub_0)\n  dup1\n  dataOffset(sub_0)\n  0x00\n  codecopy\n  0x00\n  return\nstop\n\nsub_0: assembly {\n        /* \"contracts/Assert.sol\":66:503  contract Assert {... */\n      mstore(0x40, 0x80)\n      jumpi(tag_1, lt(calldatasize, 0x04))\n      shr(0xe0, calldataload(0x00))\n      dup1\n      0x2b813bc0\n      eq\n      tag_2\n      jumpi\n      dup1\n      0xfed42cdc\n      eq\n      tag_3\n      jumpi\n    tag_1:\n      0x00\n      dup1\n      revert\n        /* \"contracts/Assert.sol\":88:119  function testAssert() public {} */\n    tag_2:\n      callvalue\n      dup1\n      iszero\n      tag_4\n      jumpi\n      0x00\n      dup1\n      revert\n    tag_4:\n      pop\n      tag_5\n      tag_6\n      jump\t// in\n    tag_5:\n      stop\n        /* \"contracts/Assert.sol\":125:501  function splitBalance(address payable addr1, address payable addr2)... */\n    tag_3:\n      tag_7\n      0x04\n      dup1\n      calldatasize\n      sub\n      dup2\n      add\n      swap1\n      tag_8\n      swap2\n      swap1\n      tag_9\n      jump\t// in\n    tag_8:\n      tag_10\n      jump\t// in\n    tag_7:\n      stop\n        /* \"contracts/Assert.sol\":88:119  function testAssert() public {} */\n    tag_6:\n      jump\t// out\n        /* \"contracts/Assert.sol\":125:501  function splitBalance(address payable addr1, address payable addr2)... */\n    tag_10:\n        /* \"contracts/Assert.sol\":263:264  0 */\n      0x00\n        /* \"contracts/Assert.sol\":258:259  2 */\n      0x02\n        /* \"contracts/Assert.sol\":246:255  msg.value */\n      callvalue\n        /* \"contracts/Assert.sol\":246:259  msg.value % 2 */\n      tag_13\n      swap2\n      swap1\n      tag_14\n      jump\t// in\n    tag_13:\n        /* \"contracts/Assert.sol\":246:264  msg.value % 2 == 0 */\n      eq\n        /* \"contracts/Assert.sol\":238:289  require(msg.value % 2 == 0, \"Even value required.\") */\n      tag_15\n      jumpi\n      mload(0x40)\n      0x08c379a000000000000000000000000000000000000000000000000000000000\n      dup2\n      mstore\n      0x04\n      add\n      tag_16\n      swap1\n      tag_17\n      jump\t// in\n    tag_16:\n      mload(0x40)\n      dup1\n      swap2\n      sub\n      swap1\n      revert\n    tag_15:\n        /* \"contracts/Assert.sol\":299:328  uint256 balanceBeforeTransfer */\n      0x00\n        /* \"contracts/Assert.sol\":331:352  address(this).balance */\n      selfbalance\n        /* \"contracts/Assert.sol\":299:352  uint256 balanceBeforeTransfer = address(this).balance */\n      swap1\n      pop\n        /* \"contracts/Assert.sol\":362:367  addr1 */\n      dup3\n        /* \"contracts/Assert.sol\":362:376  addr1.transfer */\n      0xffffffffffffffffffffffffffffffffffffffff\n      and\n        /* \"contracts/Assert.sol\":362:391  addr1.transfer(msg.value / 2) */\n      0x08fc\n        /* \"contracts/Assert.sol\":389:390  2 */\n      0x02\n        /* \"contracts/Assert.sol\":377:386  msg.value */\n      callvalue\n        /* \"contracts/Assert.sol\":377:390  msg.value / 2 */\n      tag_18\n      swap2\n      swap1\n      tag_19\n      jump\t// in\n    tag_18:\n        /* \"contracts/Assert.sol\":362:391  addr1.transfer(msg.value / 2) */\n      swap1\n      dup2\n      iszero\n      mul\n      swap1\n      mload(0x40)\n      0x00\n      mload(0x40)\n      dup1\n      dup4\n      sub\n      dup2\n      dup6\n      dup9\n      dup9\n      call\n      swap4\n      pop\n      pop\n      pop\n      pop\n      iszero\n      dup1\n      iszero\n      tag_21\n      jumpi\n      returndatasize\n      0x00\n      dup1\n      returndatacopy\n      revert(0x00, returndatasize)\n    tag_21:\n      pop\n        /* \"contracts/Assert.sol\":401:406  addr2 */\n      dup2\n        /* \"contracts/Assert.sol\":401:415  addr2.transfer */\n      0xffffffffffffffffffffffffffffffffffffffff\n      and\n        /* \"contracts/Assert.sol\":401:430  addr2.transfer(msg.value / 2) */\n      0x08fc\n        /* \"contracts/Assert.sol\":428:429  2 */\n      0x02\n        /* \"contracts/Assert.sol\":416:425  msg.value */\n      callvalue\n        /* \"contracts/Assert.sol\":416:429  msg.value / 2 */\n      tag_22\n      swap2\n      swap1\n      tag_19\n      jump\t// in\n    tag_22:\n        /* \"contracts/Assert.sol\":401:430  addr2.transfer(msg.value / 2) */\n      swap1\n      dup2\n      iszero\n      mul\n      swap1\n      mload(0x40)\n      0x00\n      mload(0x40)\n      dup1\n      dup4\n      sub\n      dup2\n      dup6\n      dup9\n      dup9\n      call\n      swap4\n      pop\n      pop\n      pop\n      pop\n      iszero\n      dup1\n      iszero\n      tag_24\n      jumpi\n      returndatasize\n      0x00\n      dup1\n      returndatacopy\n      revert(0x00, returndatasize)\n    tag_24:\n      pop\n        /* \"contracts/Assert.sol\":472:493  address(this).balance */\n      selfbalance\n        /* \"contracts/Assert.sol\":447:468  balanceBeforeTransfer */\n      dup2\n        /* \"contracts/Assert.sol\":447:493  balanceBeforeTransfer == address(this).balance */\n      eq\n        /* \"contracts/Assert.sol\":440:494  assert(balanceBeforeTransfer == address(this).balance) */\n      tag_25\n      jumpi\n      tag_26\n      tag_27\n      jump\t// in\n    tag_26:\n    tag_25:\n        /* \"contracts/Assert.sol\":228:501  {... */\n      pop\n        /* \"contracts/Assert.sol\":125:501  function splitBalance(address payable addr1, address payable addr2)... */\n      pop\n      pop\n      jump\t// out\n        /* \"#utility.yul\":88:205   */\n    tag_29:\n        /* \"#utility.yul\":197:198   */\n      0x00\n        /* \"#utility.yul\":194:195   */\n      dup1\n        /* \"#utility.yul\":187:199   */\n      revert\n        /* \"#utility.yul\":334:460   */\n    tag_31:\n        /* \"#utility.yul\":371:378   */\n      0x00\n        /* \"#utility.yul\":411:453   */\n      0xffffffffffffffffffffffffffffffffffffffff\n        /* \"#utility.yul\":404:409   */\n      dup3\n        /* \"#utility.yul\":400:454   */\n      and\n        /* \"#utility.yul\":389:454   */\n      swap1\n      pop\n        /* \"#utility.yul\":334:460   */\n      swap2\n      swap1\n      pop\n      jump\t// out\n        /* \"#utility.yul\":466:570   */\n    tag_32:\n        /* \"#utility.yul\":511:518   */\n      0x00\n        /* \"#utility.yul\":540:564   */\n      tag_47\n        /* \"#utility.yul\":558:563   */\n      dup3\n        /* \"#utility.yul\":540:564   */\n      tag_31\n      jump\t// in\n    tag_47:\n        /* \"#utility.yul\":529:564   */\n      swap1\n      pop\n        /* \"#utility.yul\":466:570   */\n      swap2\n      swap1\n      pop\n      jump\t// out\n        /* \"#utility.yul\":576:714   */\n    tag_33:\n        /* \"#utility.yul\":657:689   */\n      tag_49\n        /* \"#utility.yul\":683:688   */\n      dup2\n        /* \"#utility.yul\":657:689   */\n      tag_32\n      jump\t// in\n    tag_49:\n        /* \"#utility.yul\":650:655   */\n      dup2\n        /* \"#utility.yul\":647:690   */\n      eq\n        /* \"#utility.yul\":637:708   */\n      tag_50\n      jumpi\n        /* \"#utility.yul\":704:705   */\n      0x00\n        /* \"#utility.yul\":701:702   */\n      dup1\n        /* \"#utility.yul\":694:706   */\n      revert\n        /* \"#utility.yul\":637:708   */\n    tag_50:\n        /* \"#utility.yul\":576:714   */\n      pop\n      jump\t// out\n        /* \"#utility.yul\":720:875   */\n    tag_34:\n        /* \"#utility.yul\":774:779   */\n      0x00\n        /* \"#utility.yul\":812:818   */\n      dup2\n        /* \"#utility.yul\":799:819   */\n      calldataload\n        /* \"#utility.yul\":790:819   */\n      swap1\n      pop\n        /* \"#utility.yul\":828:869   */\n      tag_52\n        /* \"#utility.yul\":863:868   */\n      dup2\n        /* \"#utility.yul\":828:869   */\n      tag_33\n      jump\t// in\n    tag_52:\n        /* \"#utility.yul\":720:875   */\n      swap3\n      swap2\n      pop\n      pop\n      jump\t// out\n        /* \"#utility.yul\":881:1387   */\n    tag_9:\n        /* \"#utility.yul\":965:971   */\n      0x00\n        /* \"#utility.yul\":973:979   */\n      dup1\n        /* \"#utility.yul\":1022:1024   */\n      0x40\n        /* \"#utility.yul\":1010:1019   */\n      dup4\n        /* \"#utility.yul\":1001:1008   */\n      dup6\n        /* \"#utility.yul\":997:1020   */\n      sub\n        /* \"#utility.yul\":993:1025   */\n      slt\n        /* \"#utility.yul\":990:1109   */\n      iszero\n      tag_54\n      jumpi\n        /* \"#utility.yul\":1028:1107   */\n      tag_55\n      tag_29\n      jump\t// in\n    tag_55:\n        /* \"#utility.yul\":990:1109   */\n    tag_54:\n        /* \"#utility.yul\":1148:1149   */\n      0x00\n        /* \"#utility.yul\":1173:1234   */\n      tag_56\n        /* \"#utility.yul\":1226:1233   */\n      dup6\n        /* \"#utility.yul\":1217:1223   */\n      dup3\n        /* \"#utility.yul\":1206:1215   */\n      dup7\n        /* \"#utility.yul\":1202:1224   */\n      add\n        /* \"#utility.yul\":1173:1234   */\n      tag_34\n      jump\t// in\n    tag_56:\n        /* \"#utility.yul\":1163:1234   */\n      swap3\n      pop\n        /* \"#utility.yul\":1119:1244   */\n      pop\n        /* \"#utility.yul\":1283:1285   */\n      0x20\n        /* \"#utility.yul\":1309:1370   */\n      tag_57\n        /* \"#utility.yul\":1362:1369   */\n      dup6\n        /* \"#utility.yul\":1353:1359   */\n      dup3\n        /* \"#utility.yul\":1342:1351   */\n      dup7\n        /* \"#utility.yul\":1338:1360   */\n      add\n        /* \"#utility.yul\":1309:1370   */\n      tag_34\n      jump\t// in\n    tag_57:\n        /* \"#utility.yul\":1299:1370   */\n      swap2\n      pop\n        /* \"#utility.yul\":1254:1380   */\n      pop\n        /* \"#utility.yul\":881:1387   */\n      swap3\n      pop\n      swap3\n      swap1\n      pop\n      jump\t// out\n        /* \"#utility.yul\":1393:1470   */\n    tag_35:\n        /* \"#utility.yul\":1430:1437   */\n      0x00\n        /* \"#utility.yul\":1459:1464   */\n      dup2\n        /* \"#utility.yul\":1448:1464   */\n      swap1\n      pop\n        /* \"#utility.yul\":1393:1470   */\n      swap2\n      swap1\n      pop\n      jump\t// out\n        /* \"#utility.yul\":1476:1656   */\n    tag_36:\n        /* \"#utility.yul\":1524:1601   */\n      0x4e487b7100000000000000000000000000000000000000000000000000000000\n        /* \"#utility.yul\":1521:1522   */\n      0x00\n        /* \"#utility.yul\":1514:1602   */\n      mstore\n        /* \"#utility.yul\":1621:1625   */\n      0x12\n        /* \"#utility.yul\":1618:1619   */\n      0x04\n        /* \"#utility.yul\":1611:1626   */\n      mstore\n        /* \"#utility.yul\":1645:1649   */\n      0x24\n        /* \"#utility.yul\":1642:1643   */\n      0x00\n        /* \"#utility.yul\":1635:1650   */\n      revert\n        /* \"#utility.yul\":1662:1838   */\n    tag_14:\n        /* \"#utility.yul\":1694:1695   */\n      0x00\n        /* \"#utility.yul\":1711:1731   */\n      tag_61\n        /* \"#utility.yul\":1729:1730   */\n      dup3\n        /* \"#utility.yul\":1711:1731   */\n      tag_35\n      jump\t// in\n    tag_61:\n        /* \"#utility.yul\":1706:1731   */\n      swap2\n      pop\n        /* \"#utility.yul\":1745:1765   */\n      tag_62\n        /* \"#utility.yul\":1763:1764   */\n      dup4\n        /* \"#utility.yul\":1745:1765   */\n      tag_35\n      jump\t// in\n    tag_62:\n        /* \"#utility.yul\":1740:1765   */\n      swap3\n      pop\n        /* \"#utility.yul\":1784:1785   */\n      dup3\n        /* \"#utility.yul\":1774:1809   */\n      tag_63\n      jumpi\n        /* \"#utility.yul\":1789:1807   */\n      tag_64\n      tag_36\n      jump\t// in\n    tag_64:\n        /* \"#utility.yul\":1774:1809   */\n    tag_63:\n        /* \"#utility.yul\":1830:1831   */\n      dup3\n        /* \"#utility.yul\":1827:1828   */\n      dup3\n        /* \"#utility.yul\":1823:1832   */\n      mod\n        /* \"#utility.yul\":1818:1832   */\n      swap1\n      pop\n        /* \"#utility.yul\":1662:1838   */\n      swap3\n      swap2\n      pop\n      pop\n      jump\t// out\n        /* \"#utility.yul\":1844:2013   */\n    tag_37:\n        /* \"#utility.yul\":1928:1939   */\n      0x00\n        /* \"#utility.yul\":1962:1968   */\n      dup3\n        /* \"#utility.yul\":1957:1960   */\n      dup3\n        /* \"#utility.yul\":1950:1969   */\n      mstore\n        /* \"#utility.yul\":2002:2006   */\n      0x20\n        /* \"#utility.yul\":1997:2000   */\n      dup3\n        /* \"#utility.yul\":1993:2007   */\n      add\n        /* \"#utility.yul\":1978:2007   */\n      swap1\n      pop\n        /* \"#utility.yul\":1844:2013   */\n      swap3\n      swap2\n      pop\n      pop\n      jump\t// out\n        /* \"#utility.yul\":2019:2189   */\n    tag_38:\n        /* \"#utility.yul\":2159:2181   */\n      0x4576656e2076616c75652072657175697265642e000000000000000000000000\n        /* \"#utility.yul\":2155:2156   */\n      0x00\n        /* \"#utility.yul\":2147:2153   */\n      dup3\n        /* \"#utility.yul\":2143:2157   */\n      add\n        /* \"#utility.yul\":2136:2182   */\n      mstore\n        /* \"#utility.yul\":2019:2189   */\n      pop\n      jump\t// out\n        /* \"#utility.yul\":2195:2561   */\n    tag_39:\n        /* \"#utility.yul\":2337:2340   */\n      0x00\n        /* \"#utility.yul\":2358:2425   */\n      tag_68\n        /* \"#utility.yul\":2422:2424   */\n      0x14\n        /* \"#utility.yul\":2417:2420   */\n      dup4\n        /* \"#utility.yul\":2358:2425   */\n      tag_37\n      jump\t// in\n    tag_68:\n        /* \"#utility.yul\":2351:2425   */\n      swap2\n      pop\n        /* \"#utility.yul\":2434:2527   */\n      tag_69\n        /* \"#utility.yul\":2523:2526   */\n      dup3\n        /* \"#utility.yul\":2434:2527   */\n      tag_38\n      jump\t// in\n    tag_69:\n        /* \"#utility.yul\":2552:2554   */\n      0x20\n        /* \"#utility.yul\":2547:2550   */\n      dup3\n        /* \"#utility.yul\":2543:2555   */\n      add\n        /* \"#utility.yul\":2536:2555   */\n      swap1\n      pop\n        /* \"#utility.yul\":2195:2561   */\n      swap2\n      swap1\n      pop\n      jump\t// out\n        /* \"#utility.yul\":2567:2986   */\n    tag_17:\n        /* \"#utility.yul\":2733:2737   */\n      0x00\n        /* \"#utility.yul\":2771:2773   */\n      0x20\n        /* \"#utility.yul\":2760:2769   */\n      dup3\n        /* \"#utility.yul\":2756:2774   */\n      add\n        /* \"#utility.yul\":2748:2774   */\n      swap1\n      pop\n        /* \"#utility.yul\":2820:2829   */\n      dup2\n        /* \"#utility.yul\":2814:2818   */\n      dup2\n        /* \"#utility.yul\":2810:2830   */\n      sub\n        /* \"#utility.yul\":2806:2807   */\n      0x00\n        /* \"#utility.yul\":2795:2804   */\n      dup4\n        /* \"#utility.yul\":2791:2808   */\n      add\n        /* \"#utility.yul\":2784:2831   */\n      mstore\n        /* \"#utility.yul\":2848:2979   */\n      tag_71\n        /* \"#utility.yul\":2974:2978   */\n      dup2\n        /* \"#utility.yul\":2848:2979   */\n      tag_39\n      jump\t// in\n    tag_71:\n        /* \"#utility.yul\":2840:2979   */\n      swap1\n      pop\n        /* \"#utility.yul\":2567:2986   */\n      swap2\n      swap1\n      pop\n      jump\t// out\n        /* \"#utility.yul\":3178:3363   */\n    tag_19:\n        /* \"#utility.yul\":3218:3219   */\n      0x00\n        /* \"#utility.yul\":3235:3255   */\n      tag_74\n        /* \"#utility.yul\":3253:3254   */\n      dup3\n        /* \"#utility.yul\":3235:3255   */\n      tag_35\n      jump\t// in\n    tag_74:\n        /* \"#utility.yul\":3230:3255   */\n      swap2\n      pop\n        /* \"#utility.yul\":3269:3289   */\n      tag_75\n        /* \"#utility.yul\":3287:3288   */\n      dup4\n        /* \"#utility.yul\":3269:3289   */\n      tag_35\n      jump\t// in\n    tag_75:\n        /* \"#utility.yul\":3264:3289   */\n      swap3\n      pop\n        /* \"#utility.yul\":3308:3309   */\n      dup3\n        /* \"#utility.yul\":3298:3333   */\n      tag_76\n      jumpi\n        /* \"#utility.yul\":3313:3331   */\n      tag_77\n      tag_36\n      jump\t// in\n    tag_77:\n        /* \"#utility.yul\":3298:3333   */\n    tag_76:\n        /* \"#utility.yul\":3355:3356   */\n      dup3\n        /* \"#utility.yul\":3352:3353   */\n      dup3\n        /* \"#utility.yul\":3348:3357   */\n      div\n        /* \"#utility.yul\":3343:3357   */\n      swap1\n      pop\n        /* \"#utility.yul\":3178:3363   */\n      swap3\n      swap2\n      pop\n      pop\n      jump\t// out\n        /* \"#utility.yul\":3369:3549   */\n    tag_27:\n        /* \"#utility.yul\":3417:3494   */\n      0x4e487b7100000000000000000000000000000000000000000000000000000000\n        /* \"#utility.yul\":3414:3415   */\n      0x00\n        /* \"#utility.yul\":3407:3495   */\n      mstore\n        /* \"#utility.yul\":3514:3518   */\n      0x01\n        /* \"#utility.yul\":3511:3512   */\n      0x04\n        /* \"#utility.yul\":3504:3519   */\n      mstore\n        /* \"#utility.yul\":3538:3542   */\n      0x24\n        /* \"#utility.yul\":3535:3536   */\n      0x00\n        /* \"#utility.yul\":3528:3543   */\n      revert\n\n    auxdata: 0xa2646970667358221220af44a63490c57ca31ed88ec2a4a5a45a831d62ddc208691f5edaf0912e923b3a64736f6c63430008190033\n}\n",
				"bytecode": {
					"linkReferences": {},
					"object": "6080604052348015600e575f80fd5b506103748061001c5f395ff3fe608060405260043610610028575f3560e01c80632b813bc01461002c578063fed42cdc14610042575b5f80fd5b348015610037575f80fd5b5061004061005e565b005b61005c600480360381019061005791906101c5565b610060565b005b565b5f60023461006e9190610239565b146100ae576040517f08c379a00000000000000000000000000000000000000000000000000000000081526004016100a5906102c3565b60405180910390fd5b5f4790508273ffffffffffffffffffffffffffffffffffffffff166108fc6002346100d991906102e1565b90811502906040515f60405180830381858888f19350505050158015610101573d5f803e3d5ffd5b508173ffffffffffffffffffffffffffffffffffffffff166108fc60023461012991906102e1565b90811502906040515f60405180830381858888f19350505050158015610151573d5f803e3d5ffd5b5047811461016257610161610311565b5b505050565b5f80fd5b5f73ffffffffffffffffffffffffffffffffffffffff82169050919050565b5f6101948261016b565b9050919050565b6101a48161018a565b81146101ae575f80fd5b50565b5f813590506101bf8161019b565b92915050565b5f80604083850312156101db576101da610167565b5b5f6101e8858286016101b1565b92505060206101f9858286016101b1565b9150509250929050565b5f819050919050565b7f4e487b71000000000000000000000000000000000000000000000000000000005f52601260045260245ffd5b5f61024382610203565b915061024e83610203565b92508261025e5761025d61020c565b5b828206905092915050565b5f82825260208201905092915050565b7f4576656e2076616c75652072657175697265642e0000000000000000000000005f82015250565b5f6102ad601483610269565b91506102b882610279565b602082019050919050565b5f6020820190508181035f8301526102da816102a1565b9050919050565b5f6102eb82610203565b91506102f683610203565b9250826103065761030561020c565b5b828204905092915050565b7f4e487b71000000000000000000000000000000000000000000000000000000005f52600160045260245ffdfea2646970667358221220af44a63490c57ca31ed88ec2a4a5a45a831d62ddc208691f5edaf0912e923b3a64736f6c63430008190033",
					"opcodes": "PUSH1 0x80 PUSH1 0x40 MSTORE CALLVALUE DUP1 ISZERO PUSH1 0xE JUMPI PUSH0 DUP1 REVERT JUMPDEST POP PUSH2 0x374 DUP1 PUSH2 0x1C PUSH0 CODECOPY PUSH0 RETURN INVALID PUSH1 0x80 PUSH1 0x40 MSTORE PUSH1 0x4 CALLDATASIZE LT PUSH2 0x28 JUMPI PUSH0 CALLDATALOAD PUSH1 0xE0 SHR DUP1 PUSH4 0x2B813BC0 EQ PUSH2 0x2C JUMPI DUP1 PUSH4 0xFED42CDC EQ PUSH2 0x42 JUMPI JUMPDEST PUSH0 DUP1 REVERT JUMPDEST CALLVALUE DUP1 ISZERO PUSH2 0x37 JUMPI PUSH0 DUP1 REVERT JUMPDEST POP PUSH2 0x40 PUSH2 0x5E JUMP JUMPDEST STOP JUMPDEST PUSH2 0x5C PUSH1 0x4 DUP1 CALLDATASIZE SUB DUP2 ADD SWAP1 PUSH2 0x57 SWAP2 SWAP1 PUSH2 0x1C5 JUMP JUMPDEST PUSH2 0x60 JUMP JUMPDEST STOP JUMPDEST JUMP JUMPDEST PUSH0 PUSH1 0x2 CALLVALUE PUSH2 0x6E SWAP2 SWAP1 PUSH2 0x239 JUMP JUMPDEST EQ PUSH2 0xAE JUMPI PUSH1 0x40 MLOAD PUSH32 0x8C379A000000000000000000000000000000000000000000000000000000000 DUP2 MSTORE PUSH1 0x4 ADD PUSH2 0xA5 SWAP1 PUSH2 0x2C3 JUMP JUMPDEST PUSH1 0x40 MLOAD DUP1 SWAP2 SUB SWAP1 REVERT JUMPDEST PUSH0 SELFBALANCE SWAP1 POP DUP3 PUSH20 0xFFFFFFFFFFFFFFFFFFFFFFFFFFFFFFFFFFFFFFFF AND PUSH2 0x8FC PUSH1 0x2 CALLVALUE PUSH2 0xD9 SWAP2 SWAP1 PUSH2 0x2E1 JUMP JUMPDEST SWAP1 DUP2 ISZERO MUL SWAP1 PUSH1 0x40 MLOAD PUSH0 PUSH1 0x40 MLOAD DUP1 DUP4 SUB DUP2 DUP6 DUP9 DUP9 CALL SWAP4 POP POP POP POP ISZERO DUP1 ISZERO PUSH2 0x101 JUMPI RETURNDATASIZE PUSH0 DUP1 RETURNDATACOPY RETURNDATASIZE PUSH0 REVERT JUMPDEST POP DUP2 PUSH20 0xFFFFFFFFFFFFFFFFFFFFFFFFFFFFFFFFFFFFFFFF AND PUSH2 0x8FC PUSH1 0x2 CALLVALUE PUSH2 0x129 SWAP2 SWAP1 PUSH2 0x2E1 JUMP JUMPDEST SWAP1 DUP2 ISZERO MUL SWAP1 PUSH1 0x40 MLOAD PUSH0 PUSH1 0x40 MLOAD DUP1 DUP4 SUB DUP2 DUP6 DUP9 DUP9 CALL SWAP4 POP POP POP POP ISZERO DUP1 ISZERO PUSH2 0x151 JUMPI RETURNDATASIZE PUSH0 DUP1 RETURNDATACOPY RETURNDATASIZE PUSH0 REVERT JUMPDEST POP SELFBALANCE DUP2 EQ PUSH2 0x162 JUMPI PUSH2 0x161 PUSH2 0x311 JUMP JUMPDEST JUMPDEST POP POP POP JUMP JUMPDEST PUSH0 DUP1 REVERT JUMPDEST PUSH0 PUSH20 0xFFFFFFFFFFFFFFFFFFFFFFFFFFFFFFFFFFFFFFFF DUP3 AND SWAP1 POP SWAP2 SWAP1 POP JUMP JUMPDEST PUSH0 PUSH2 0x194 DUP3 PUSH2 0x16B JUMP JUMPDEST SWAP1 POP SWAP2 SWAP1 POP JUMP JUMPDEST PUSH2 0x1A4 DUP2 PUSH2 0x18A JUMP JUMPDEST DUP2 EQ PUSH2 0x1AE JUMPI PUSH0 DUP1 REVERT JUMPDEST POP JUMP JUMPDEST PUSH0 DUP2 CALLDATALOAD SWAP1 POP PUSH2 0x1BF DUP2 PUSH2 0x19B JUMP JUMPDEST SWAP3 SWAP2 POP POP JUMP JUMPDEST PUSH0 DUP1 PUSH1 0x40 DUP4 DUP6 SUB SLT ISZERO PUSH2 0x1DB JUMPI PUSH2 0x1DA PUSH2 0x167 JUMP JUMPDEST JUMPDEST PUSH0 PUSH2 0x1E8 DUP6 DUP3 DUP7 ADD PUSH2 0x1B1 JUMP JUMPDEST SWAP3 POP POP PUSH1 0x20 PUSH2 0x1F9 DUP6 DUP3 DUP7 ADD PUSH2 0x1B1 JUMP JUMPDEST SWAP2 POP POP SWAP3 POP SWAP3 SWAP1 POP JUMP JUMPDEST PUSH0 DUP2 SWAP1 POP SWAP2 SWAP1 POP JUMP JUMPDEST PUSH32 0x4E487B7100000000000000000000000000000000000000000000000000000000 PUSH0 MSTORE PUSH1 0x12 PUSH1 0x4 MSTORE PUSH1 0x24 PUSH0 REVERT JUMPDEST PUSH0 PUSH2 0x243 DUP3 PUSH2 0x203 JUMP JUMPDEST SWAP2 POP PUSH2 0x24E DUP4 PUSH2 0x203 JUMP JUMPDEST SWAP3 POP DUP3 PUSH2 0x25E JUMPI PUSH2 0x25D PUSH2 0x20C JUMP JUMPDEST JUMPDEST DUP3 DUP3 MOD SWAP1 POP SWAP3 SWAP2 POP POP JUMP JUMPDEST PUSH0 DUP3 DUP3 MSTORE PUSH1 0x20 DUP3 ADD SWAP1 POP SWAP3 SWAP2 POP POP JUMP JUMPDEST PUSH32 0x4576656E2076616C75652072657175697265642E000000000000000000000000 PUSH0 DUP3 ADD MSTORE POP JUMP JUMPDEST PUSH0 PUSH2 0x2AD PUSH1 0x14 DUP4 PUSH2 0x269 JUMP JUMPDEST SWAP2 POP PUSH2 0x2B8 DUP3 PUSH2 0x279 JUMP JUMPDEST PUSH1 0x20 DUP3 ADD SWAP1 POP SWAP2 SWAP1 POP JUMP JUMPDEST PUSH0 PUSH1 0x20 DUP3 ADD SWAP1 POP DUP2 DUP2 SUB PUSH0 DUP4 ADD MSTORE PUSH2 0x2DA DUP2 PUSH2 0x2A1 JUMP JUMPDEST SWAP1 POP SWAP2 SWAP1 POP JUMP JUMPDEST PUSH0 PUSH2 0x2EB DUP3 PUSH2 0x203 JUMP JUMPDEST SWAP2 POP PUSH2 0x2F6 DUP4 PUSH2 0x203 JUMP JUMPDEST SWAP3 POP DUP3 PUSH2 0x306 JUMPI PUSH2 0x305 PUSH2 0x20C JUMP JUMPDEST JUMPDEST DUP3 DUP3 DIV SWAP1 POP SWAP3 SWAP2 POP POP JUMP JUMPDEST PUSH32 0x4E487B7100000000000000000000000000000000000000000000000000000000 PUSH0 MSTORE PUSH1 0x1 PUSH1 0x4 MSTORE PUSH1 0x24 PUSH0 REVERT INVALID LOG2 PUSH5 0x6970667358 0x22 SLT KECCAK256 0xAF PREVRANDAO 0xA6 CALLVALUE SWAP1 0xC5 PUSH29 0xA31ED88EC2A4A5A45A831D62DDC208691F5EDAF0912E923B3A64736F6C PUSH4 0x43000819 STOP CALLER "
				},
				"gasEstimates": {
					"creation": {
						"codeDepositCost": "176800",
						"executionCost": "218",
						"totalCost": "177018"
					},
					"external": {
						"splitBalance(address,address)": "infinite",
						"testAssert()": "121"
					}
				},
				"methodIdentifiers": {
					"splitBalance(address,address)": "fed42cdc",
					"testAssert()": "2b813bc0"
				}
			},
			"storageLayout": {
				"storage": [],
				"types": null
			},
			"userdoc": {
				"kind": "user",
				"methods": {},
				"version": 1
			}
		}
	}
}