{
	"contracts/Revert.sol": {
		"Revert": {
			"abi": [
				{
					"inputs": [
						{
							"internalType": "address payable",
							"name": "addr1",
							"type": "address"
						},
						{
							"internalType": "address payable",
							"name": "addr2",
							"type": "address"
						}
					],
					"name": "splitEther",
					"outputs": [],
					"stateMutability": "payable",
					"type": "function"
				},
				{
					"inputs": [],
					"name": "testRevert",
					"outputs": [],
					"stateMutability": "nonpayable",
					"type": "function"
				}
			],
			"devdoc": {
				"kind": "dev",
				"methods": {},
				"version": 1
			},
			"evm": {
				"assembly": "    /* \"contracts/Revert.sol\":66:382  contract Revert{... */\n  mstore(0x40, 0x80)\n  callvalue\n  dup1\n  iszero\n  tag_1\n  jumpi\n  0x00\n  dup1\n  revert\ntag_1:\n  pop\n  dataSize(sub_0)\n  dup1\n  dataOffset(sub_0)\n  0x00\n  codecopy\n  0x00\n  return\nstop\n\nsub_0: assembly {\n        /* \"contracts/Revert.sol\":66:382  contract Revert{... */\n      mstore(0x40, 0x80)\n      jumpi(tag_1, lt(calldatasize, 0x04))\n      shr(0xe0, calldataload(0x00))\n      dup1\n      0x69b08d7d\n      eq\n      tag_2\n      jumpi\n      dup1\n      0xa26388bb\n      eq\n      tag_3\n      jumpi\n    tag_1:\n      0x00\n      dup1\n      revert\n        /* \"contracts/Revert.sol\":132:380  function splitEther(address payable addr1, address payable addr2) public payable {... */\n    tag_2:\n      tag_4\n      0x04\n      dup1\n      calldatasize\n      sub\n      dup2\n      add\n      swap1\n      tag_5\n      swap2\n      swap1\n      tag_6\n      jump\t// in\n    tag_5:\n      tag_7\n      jump\t// in\n    tag_4:\n      stop\n        /* \"contracts/Revert.sol\":89:126  function testRevert() public {... */\n    tag_3:\n      callvalue\n      dup1\n      iszero\n      tag_8\n      jumpi\n      0x00\n      dup1\n      revert\n    tag_8:\n      pop\n      tag_9\n      tag_10\n      jump\t// in\n    tag_9:\n      stop\n        /* \"contracts/Revert.sol\":132:380  function splitEther(address payable addr1, address payable addr2) public payable {... */\n    tag_7:\n        /* \"contracts/Revert.sol\":243:244  0 */\n      0x00\n        /* \"contracts/Revert.sol\":238:239  2 */\n      0x02\n        /* \"contracts/Revert.sol\":226:235  msg.value */\n      callvalue\n        /* \"contracts/Revert.sol\":226:239  msg.value % 2 */\n      tag_12\n      swap2\n      swap1\n      tag_13\n      jump\t// in\n    tag_12:\n        /* \"contracts/Revert.sol\":226:244  msg.value % 2 != 0 */\n      eq\n        /* \"contracts/Revert.sol\":223:299  if(msg.value % 2 != 0){... */\n      tag_14\n      jumpi\n        /* \"contracts/Revert.sol\":259:288  revert(\"Even value required\") */\n      mload(0x40)\n      0x08c379a000000000000000000000000000000000000000000000000000000000\n      dup2\n      mstore\n      0x04\n      add\n      tag_15\n      swap1\n      tag_16\n      jump\t// in\n    tag_15:\n      mload(0x40)\n      dup1\n      swap2\n      sub\n      swap1\n      revert\n        /* \"contracts/Revert.sol\":223:299  if(msg.value % 2 != 0){... */\n    tag_14:\n        /* \"contracts/Revert.sol\":309:314  addr1 */\n      dup2\n        /* \"contracts/Revert.sol\":309:323  addr1.transfer */\n      0xffffffffffffffffffffffffffffffffffffffff\n      and\n        /* \"contracts/Revert.sol\":309:336  addr1.transfer(msg.value/2) */\n      0x08fc\n        /* \"contracts/Revert.sol\":334:335  2 */\n      0x02\n        /* \"contracts/Revert.sol\":324:333  msg.value */\n      callvalue\n        /* \"contracts/Revert.sol\":324:335  msg.value/2 */\n      tag_17\n      swap2\n      swap1\n      tag_18\n      jump\t// in\n    tag_17:\n        /* \"contracts/Revert.sol\":309:336  addr1.transfer(msg.value/2) */\n      swap1\n      dup2\n      iszero\n      mul\n      swap1\n      mload(0x40)\n      0x00\n      mload(0x40)\n      dup1\n      dup4\n      sub\n      dup2\n      dup6\n      dup9\n      dup9\n      call\n      swap4\n      pop\n      pop\n      pop\n      pop\n      iszero\n      dup1\n      iszero\n      tag_20\n      jumpi\n      returndatasize\n      0x00\n      dup1\n      returndatacopy\n      revert(0x00, returndatasize)\n    tag_20:\n      pop\n        /* \"contracts/Revert.sol\":346:351  addr2 */\n      dup1\n        /* \"contracts/Revert.sol\":346:360  addr2.transfer */\n      0xffffffffffffffffffffffffffffffffffffffff\n      and\n        /* \"contracts/Revert.sol\":346:373  addr2.transfer(msg.value/2) */\n      0x08fc\n        /* \"contracts/Revert.sol\":371:372  2 */\n      0x02\n        /* \"contracts/Revert.sol\":361:370  msg.value */\n      callvalue\n        /* \"contracts/Revert.sol\":361:372  msg.value/2 */\n      tag_21\n      swap2\n      swap1\n      tag_18\n      jump\t// in\n    tag_21:\n        /* \"contracts/Revert.sol\":346:373  addr2.transfer(msg.value/2) */\n      swap1\n      dup2\n      iszero\n      mul\n      swap1\n      mload(0x40)\n      0x00\n      mload(0x40)\n      dup1\n      dup4\n      sub\n      dup2\n      dup6\n      dup9\n      dup9\n      call\n      swap4\n      pop\n      pop\n      pop\n      pop\n      iszero\n      dup1\n      iszero\n      tag_23\n      jumpi\n      returndatasize\n      0x00\n      dup1\n      returndatacopy\n      revert(0x00, returndatasize)\n    tag_23:\n      pop\n        /* \"contracts/Revert.sol\":132:380  function splitEther(address payable addr1, address payable addr2) public payable {... */\n      pop\n      pop\n      jump\t// out\n        /* \"contracts/Revert.sol\":89:126  function testRevert() public {... */\n    tag_10:\n      jump\t// out\n        /* \"#utility.yul\":88:205   */\n    tag_26:\n        /* \"#utility.yul\":197:198   */\n      0x00\n        /* \"#utility.yul\":194:195   */\n      dup1\n        /* \"#utility.yul\":187:199   */\n      revert\n        /* \"#utility.yul\":334:460   */\n    tag_28:\n        /* \"#utility.yul\":371:378   */\n      0x00\n        /* \"#utility.yul\":411:453   */\n      0xffffffffffffffffffffffffffffffffffffffff\n        /* \"#utility.yul\":404:409   */\n      dup3\n        /* \"#utility.yul\":400:454   */\n      and\n        /* \"#utility.yul\":389:454   */\n      swap1\n      pop\n        /* \"#utility.yul\":334:460   */\n      swap2\n      swap1\n      pop\n      jump\t// out\n        /* \"#utility.yul\":466:570   */\n    tag_29:\n        /* \"#utility.yul\":511:518   */\n      0x00\n        /* \"#utility.yul\":540:564   */\n      tag_44\n        /* \"#utility.yul\":558:563   */\n      dup3\n        /* \"#utility.yul\":540:564   */\n      tag_28\n      jump\t// in\n    tag_44:\n        /* \"#utility.yul\":529:564   */\n      swap1\n      pop\n        /* \"#utility.yul\":466:570   */\n      swap2\n      swap1\n      pop\n      jump\t// out\n        /* \"#utility.yul\":576:714   */\n    tag_30:\n        /* \"#utility.yul\":657:689   */\n      tag_46\n        /* \"#utility.yul\":683:688   */\n      dup2\n        /* \"#utility.yul\":657:689   */\n      tag_29\n      jump\t// in\n    tag_46:\n        /* \"#utility.yul\":650:655   */\n      dup2\n        /* \"#utility.yul\":647:690   */\n      eq\n        /* \"#utility.yul\":637:708   */\n      tag_47\n      jumpi\n        /* \"#utility.yul\":704:705   */\n      0x00\n        /* \"#utility.yul\":701:702   */\n      dup1\n        /* \"#utility.yul\":694:706   */\n      revert\n        /* \"#utility.yul\":637:708   */\n    tag_47:\n        /* \"#utility.yul\":576:714   */\n      pop\n      jump\t// out\n        /* \"#utility.yul\":720:875   */\n    tag_31:\n        /* \"#utility.yul\":774:779   */\n      0x00\n        /* \"#utility.yul\":812:818   */\n      dup2\n        /* \"#utility.yul\":799:819   */\n      calldataload\n        /* \"#utility.yul\":790:819   */\n      swap1\n      pop\n        /* \"#utility.yul\":828:869   */\n      tag_49\n        /* \"#utility.yul\":863:868   */\n      dup2\n        /* \"#utility.yul\":828:869   */\n      tag_30\n      jump\t// in\n    tag_49:\n        /* \"#utility.yul\":720:875   */\n      swap3\n      swap2\n      pop\n      pop\n      jump\t// out\n        /* \"#utility.yul\":881:1387   */\n    tag_6:\n        /* \"#utility.yul\":965:971   */\n      0x00\n        /* \"#utility.yul\":973:979   */\n      dup1\n        /* \"#utility.yul\":1022:1024   */\n      0x40\n        /* \"#utility.yul\":1010:1019   */\n      dup4\n        /* \"#utility.yul\":1001:1008   */\n      dup6\n        /* \"#utility.yul\":997:1020   */\n      sub\n        /* \"#utility.yul\":993:1025   */\n      slt\n        /* \"#utility.yul\":990:1109   */\n      iszero\n      tag_51\n      jumpi\n        /* \"#utility.yul\":1028:1107   */\n      tag_52\n      tag_26\n      jump\t// in\n    tag_52:\n        /* \"#utility.yul\":990:1109   */\n    tag_51:\n        /* \"#utility.yul\":1148:1149   */\n      0x00\n        /* \"#utility.yul\":1173:1234   */\n      tag_53\n        /* \"#utility.yul\":1226:1233   */\n      dup6\n        /* \"#utility.yul\":1217:1223   */\n      dup3\n        /* \"#utility.yul\":1206:1215   */\n      dup7\n        /* \"#utility.yul\":1202:1224   */\n      add\n        /* \"#utility.yul\":1173:1234   */\n      tag_31\n      jump\t// in\n    tag_53:\n        /* \"#utility.yul\":1163:1234   */\n      swap3\n      pop\n        /* \"#utility.yul\":1119:1244   */\n      pop\n        /* \"#utility.yul\":1283:1285   */\n      0x20\n        /* \"#utility.yul\":1309:1370   */\n      tag_54\n        /* \"#utility.yul\":1362:1369   */\n      dup6\n        /* \"#utility.yul\":1353:1359   */\n      dup3\n        /* \"#utility.yul\":1342:1351   */\n      dup7\n        /* \"#utility.yul\":1338:1360   */\n      add\n        /* \"#utility.yul\":1309:1370   */\n      tag_31\n      jump\t// in\n    tag_54:\n        /* \"#utility.yul\":1299:1370   */\n      swap2\n      pop\n        /* \"#utility.yul\":1254:1380   */\n      pop\n        /* \"#utility.yul\":881:1387   */\n      swap3\n      pop\n      swap3\n      swap1\n      pop\n      jump\t// out\n        /* \"#utility.yul\":1393:1470   */\n    tag_32:\n        /* \"#utility.yul\":1430:1437   */\n      0x00\n        /* \"#utility.yul\":1459:1464   */\n      dup2\n        /* \"#utility.yul\":1448:1464   */\n      swap1\n      pop\n        /* \"#utility.yul\":1393:1470   */\n      swap2\n      swap1\n      pop\n      jump\t// out\n        /* \"#utility.yul\":1476:1656   */\n    tag_33:\n        /* \"#utility.yul\":1524:1601   */\n      0x4e487b7100000000000000000000000000000000000000000000000000000000\n        /* \"#utility.yul\":1521:1522   */\n      0x00\n        /* \"#utility.yul\":1514:1602   */\n      mstore\n        /* \"#utility.yul\":1621:1625   */\n      0x12\n        /* \"#utility.yul\":1618:1619   */\n      0x04\n        /* \"#utility.yul\":1611:1626   */\n      mstore\n        /* \"#utility.yul\":1645:1649   */\n      0x24\n        /* \"#utility.yul\":1642:1643   */\n      0x00\n        /* \"#utility.yul\":1635:1650   */\n      revert\n        /* \"#utility.yul\":1662:1838   */\n    tag_13:\n        /* \"#utility.yul\":1694:1695   */\n      0x00\n        /* \"#utility.yul\":1711:1731   */\n      tag_58\n        /* \"#utility.yul\":1729:1730   */\n      dup3\n        /* \"#utility.yul\":1711:1731   */\n      tag_32\n      jump\t// in\n    tag_58:\n        /* \"#utility.yul\":1706:1731   */\n      swap2\n      pop\n        /* \"#utility.yul\":1745:1765   */\n      tag_59\n        /* \"#utility.yul\":1763:1764   */\n      dup4\n        /* \"#utility.yul\":1745:1765   */\n      tag_32\n      jump\t// in\n    tag_59:\n        /* \"#utility.yul\":1740:1765   */\n      swap3\n      pop\n        /* \"#utility.yul\":1784:1785   */\n      dup3\n        /* \"#utility.yul\":1774:1809   */\n      tag_60\n      jumpi\n        /* \"#utility.yul\":1789:1807   */\n      tag_61\n      tag_33\n      jump\t// in\n    tag_61:\n        /* \"#utility.yul\":1774:1809   */\n    tag_60:\n        /* \"#utility.yul\":1830:1831   */\n      dup3\n        /* \"#utility.yul\":1827:1828   */\n      dup3\n        /* \"#utility.yul\":1823:1832   */\n      mod\n        /* \"#utility.yul\":1818:1832   */\n      swap1\n      pop\n        /* \"#utility.yul\":1662:1838   */\n      swap3\n      swap2\n      pop\n      pop\n      jump\t// out\n        /* \"#utility.yul\":1844:2013   */\n    tag_34:\n        /* \"#utility.yul\":1928:1939   */\n      0x00\n        /* \"#utility.yul\":1962:1968   */\n      dup3\n        /* \"#utility.yul\":1957:1960   */\n      dup3\n        /* \"#utility.yul\":1950:1969   */\n      mstore\n        /* \"#utility.yul\":2002:2006   */\n      0x20\n        /* \"#utility.yul\":1997:2000   */\n      dup3\n        /* \"#utility.yul\":1993:2007   */\n      add\n        /* \"#utility.yul\":1978:2007   */\n      swap1\n      pop\n        /* \"#utility.yul\":1844:2013   */\n      swap3\n      swap2\n      pop\n      pop\n      jump\t// out\n        /* \"#utility.yul\":2019:2188   */\n    tag_35:\n        /* \"#utility.yul\":2159:2180   */\n      0x4576656e2076616c756520726571756972656400000000000000000000000000\n        /* \"#utility.yul\":2155:2156   */\n      0x00\n        /* \"#utility.yul\":2147:2153   */\n      dup3\n        /* \"#utility.yul\":2143:2157   */\n      add\n        /* \"#utility.yul\":2136:2181   */\n      mstore\n        /* \"#utility.yul\":2019:2188   */\n      pop\n      jump\t// out\n        /* \"#utility.yul\":2194:2560   */\n    tag_36:\n        /* \"#utility.yul\":2336:2339   */\n      0x00\n        /* \"#utility.yul\":2357:2424   */\n      tag_65\n        /* \"#utility.yul\":2421:2423   */\n      0x13\n        /* \"#utility.yul\":2416:2419   */\n      dup4\n        /* \"#utility.yul\":2357:2424   */\n      tag_34\n      jump\t// in\n    tag_65:\n        /* \"#utility.yul\":2350:2424   */\n      swap2\n      pop\n        /* \"#utility.yul\":2433:2526   */\n      tag_66\n        /* \"#utility.yul\":2522:2525   */\n      dup3\n        /* \"#utility.yul\":2433:2526   */\n      tag_35\n      jump\t// in\n    tag_66:\n        /* \"#utility.yul\":2551:2553   */\n      0x20\n        /* \"#utility.yul\":2546:2549   */\n      dup3\n        /* \"#utility.yul\":2542:2554   */\n      add\n        /* \"#utility.yul\":2535:2554   */\n      swap1\n      pop\n        /* \"#utility.yul\":2194:2560   */\n      swap2\n      swap1\n      pop\n      jump\t// out\n        /* \"#utility.yul\":2566:2985   */\n    tag_16:\n        /* \"#utility.yul\":2732:2736   */\n      0x00\n        /* \"#utility.yul\":2770:2772   */\n      0x20\n        /* \"#utility.yul\":2759:2768   */\n      dup3\n        /* \"#utility.yul\":2755:2773   */\n      add\n        /* \"#utility.yul\":2747:2773   */\n      swap1\n      pop\n        /* \"#utility.yul\":2819:2828   */\n      dup2\n        /* \"#utility.yul\":2813:2817   */\n      dup2\n        /* \"#utility.yul\":2809:2829   */\n      sub\n        /* \"#utility.yul\":2805:2806   */\n      0x00\n        /* \"#utility.yul\":2794:2803   */\n      dup4\n        /* \"#utility.yul\":2790:2807   */\n      add\n        /* \"#utility.yul\":2783:2830   */\n      mstore\n        /* \"#utility.yul\":2847:2978   */\n      tag_68\n        /* \"#utility.yul\":2973:2977   */\n      dup2\n        /* \"#utility.yul\":2847:2978   */\n      tag_36\n      jump\t// in\n    tag_68:\n        /* \"#utility.yul\":2839:2978   */\n      swap1\n      pop\n        /* \"#utility.yul\":2566:2985   */\n      swap2\n      swap1\n      pop\n      jump\t// out\n        /* \"#utility.yul\":3177:3362   */\n    tag_18:\n        /* \"#utility.yul\":3217:3218   */\n      0x00\n        /* \"#utility.yul\":3234:3254   */\n      tag_71\n        /* \"#utility.yul\":3252:3253   */\n      dup3\n        /* \"#utility.yul\":3234:3254   */\n      tag_32\n      jump\t// in\n    tag_71:\n        /* \"#utility.yul\":3229:3254   */\n      swap2\n      pop\n        /* \"#utility.yul\":3268:3288   */\n      tag_72\n        /* \"#utility.yul\":3286:3287   */\n      dup4\n        /* \"#utility.yul\":3268:3288   */\n      tag_32\n      jump\t// in\n    tag_72:\n        /* \"#utility.yul\":3263:3288   */\n      swap3\n      pop\n        /* \"#utility.yul\":3307:3308   */\n      dup3\n        /* \"#utility.yul\":3297:3332   */\n      tag_73\n      jumpi\n        /* \"#utility.yul\":3312:3330   */\n      tag_74\n      tag_33\n      jump\t// in\n    tag_74:\n        /* \"#utility.yul\":3297:3332   */\n    tag_73:\n        /* \"#utility.yul\":3354:3355   */\n      dup3\n        /* \"#utility.yul\":3351:3352   */\n      dup3\n        /* \"#utility.yul\":3347:3356   */\n      div\n        /* \"#utility.yul\":3342:3356   */\n      swap1\n      pop\n        /* \"#utility.yul\":3177:3362   */\n      swap3\n      swap2\n      pop\n      pop\n      jump\t// out\n\n    auxdata: 0xa26469706673582212204a030f8a3ce9adbf6d06fc222258bdccc06189913eb4ffffd766ee82be93ff8e64736f6c63430008190033\n}\n",
				"bytecode": {
					"linkReferences": {},
					"object": "6080604052348015600e575f80fd5b506103328061001c5f395ff3fe608060405260043610610028575f3560e01c806369b08d7d1461002c578063a26388bb14610048575b5f80fd5b610046600480360381019061004191906101b0565b61005e565b005b348015610053575f80fd5b5061005c610150565b005b5f60023461006c9190610224565b146100ac576040517f08c379a00000000000000000000000000000000000000000000000000000000081526004016100a3906102ae565b60405180910390fd5b8173ffffffffffffffffffffffffffffffffffffffff166108fc6002346100d391906102cc565b90811502906040515f60405180830381858888f193505050501580156100fb573d5f803e3d5ffd5b508073ffffffffffffffffffffffffffffffffffffffff166108fc60023461012391906102cc565b90811502906040515f60405180830381858888f1935050505015801561014b573d5f803e3d5ffd5b505050565b565b5f80fd5b5f73ffffffffffffffffffffffffffffffffffffffff82169050919050565b5f61017f82610156565b9050919050565b61018f81610175565b8114610199575f80fd5b50565b5f813590506101aa81610186565b92915050565b5f80604083850312156101c6576101c5610152565b5b5f6101d38582860161019c565b92505060206101e48582860161019c565b9150509250929050565b5f819050919050565b7f4e487b71000000000000000000000000000000000000000000000000000000005f52601260045260245ffd5b5f61022e826101ee565b9150610239836101ee565b925082610249576102486101f7565b5b828206905092915050565b5f82825260208201905092915050565b7f4576656e2076616c7565207265717569726564000000000000000000000000005f82015250565b5f610298601383610254565b91506102a382610264565b602082019050919050565b5f6020820190508181035f8301526102c58161028c565b9050919050565b5f6102d6826101ee565b91506102e1836101ee565b9250826102f1576102f06101f7565b5b82820490509291505056fea26469706673582212204a030f8a3ce9adbf6d06fc222258bdccc06189913eb4ffffd766ee82be93ff8e64736f6c63430008190033",
					"opcodes": "PUSH1 0x80 PUSH1 0x40 MSTORE CALLVALUE DUP1 ISZERO PUSH1 0xE JUMPI PUSH0 DUP1 REVERT JUMPDEST POP PUSH2 0x332 DUP1 PUSH2 0x1C PUSH0 CODECOPY PUSH0 RETURN INVALID PUSH1 0x80 PUSH1 0x40 MSTORE PUSH1 0x4 CALLDATASIZE LT PUSH2 0x28 JUMPI PUSH0 CALLDATALOAD PUSH1 0xE0 SHR DUP1 PUSH4 0x69B08D7D EQ PUSH2 0x2C JUMPI DUP1 PUSH4 0xA26388BB EQ PUSH2 0x48 JUMPI JUMPDEST PUSH0 DUP1 REVERT JUMPDEST PUSH2 0x46 PUSH1 0x4 DUP1 CALLDATASIZE SUB DUP2 ADD SWAP1 PUSH2 0x41 SWAP2 SWAP1 PUSH2 0x1B0 JUMP JUMPDEST PUSH2 0x5E JUMP JUMPDEST STOP JUMPDEST CALLVALUE DUP1 ISZERO PUSH2 0x53 JUMPI PUSH0 DUP1 REVERT JUMPDEST POP PUSH2 0x5C PUSH2 0x150 JUMP JUMPDEST STOP JUMPDEST PUSH0 PUSH1 0x2 CALLVALUE PUSH2 0x6C SWAP2 SWAP1 PUSH2 0x224 JUMP JUMPDEST EQ PUSH2 0xAC JUMPI PUSH1 0x40 MLOAD PUSH32 0x8C379A000000000000000000000000000000000000000000000000000000000 DUP2 MSTORE PUSH1 0x4 ADD PUSH2 0xA3 SWAP1 PUSH2 0x2AE JUMP JUMPDEST PUSH1 0x40 MLOAD DUP1 SWAP2 SUB SWAP1 REVERT JUMPDEST DUP2 PUSH20 0xFFFFFFFFFFFFFFFFFFFFFFFFFFFFFFFFFFFFFFFF AND PUSH2 0x8FC PUSH1 0x2 CALLVALUE PUSH2 0xD3 SWAP2 SWAP1 PUSH2 0x2CC JUMP JUMPDEST SWAP1 DUP2 ISZERO MUL SWAP1 PUSH1 0x40 MLOAD PUSH0 PUSH1 0x40 MLOAD DUP1 DUP4 SUB DUP2 DUP6 DUP9 DUP9 CALL SWAP4 POP POP POP POP ISZERO DUP1 ISZERO PUSH2 0xFB JUMPI RETURNDATASIZE PUSH0 DUP1 RETURNDATACOPY RETURNDATASIZE PUSH0 REVERT JUMPDEST POP DUP1 PUSH20 0xFFFFFFFFFFFFFFFFFFFFFFFFFFFFFFFFFFFFFFFF AND PUSH2 0x8FC PUSH1 0x2 CALLVALUE PUSH2 0x123 SWAP2 SWAP1 PUSH2 0x2CC JUMP JUMPDEST SWAP1 DUP2 ISZERO MUL SWAP1 PUSH1 0x40 MLOAD PUSH0 PUSH1 0x40 MLOAD DUP1 DUP4 SUB DUP2 DUP6 DUP9 DUP9 CALL SWAP4 POP POP POP POP ISZERO DUP1 ISZERO PUSH2 0x14B JUMPI RETURNDATASIZE PUSH0 DUP1 RETURNDATACOPY RETURNDATASIZE PUSH0 REVERT JUMPDEST POP POP POP JUMP JUMPDEST JUMP JUMPDEST PUSH0 DUP1 REVERT JUMPDEST PUSH0 PUSH20 0xFFFFFFFFFFFFFFFFFFFFFFFFFFFFFFFFFFFFFFFF DUP3 AND SWAP1 POP SWAP2 SWAP1 POP JUMP JUMPDEST PUSH0 PUSH2 0x17F DUP3 PUSH2 0x156 JUMP JUMPDEST SWAP1 POP SWAP2 SWAP1 POP JUMP JUMPDEST PUSH2 0x18F DUP2 PUSH2 0x175 JUMP JUMPDEST DUP2 EQ PUSH2 0x199 JUMPI PUSH0 DUP1 REVERT JUMPDEST POP JUMP JUMPDEST PUSH0 DUP2 CALLDATALOAD SWAP1 POP PUSH2 0x1AA DUP2 PUSH2 0x186 JUMP JUMPDEST SWAP3 SWAP2 POP POP JUMP JUMPDEST PUSH0 DUP1 PUSH1 0x40 DUP4 DUP6 SUB SLT ISZERO PUSH2 0x1C6 JUMPI PUSH2 0x1C5 PUSH2 0x152 JUMP JUMPDEST JUMPDEST PUSH0 PUSH2 0x1D3 DUP6 DUP3 DUP7 ADD PUSH2 0x19C JUMP JUMPDEST SWAP3 POP POP PUSH1 0x20 PUSH2 0x1E4 DUP6 DUP3 DUP7 ADD PUSH2 0x19C JUMP JUMPDEST SWAP2 POP POP SWAP3 POP SWAP3 SWAP1 POP JUMP JUMPDEST PUSH0 DUP2 SWAP1 POP SWAP2 SWAP1 POP JUMP JUMPDEST PUSH32 0x4E487B7100000000000000000000000000000000000000000000000000000000 PUSH0 MSTORE PUSH1 0x12 PUSH1 0x4 MSTORE PUSH1 0x24 PUSH0 REVERT JUMPDEST PUSH0 PUSH2 0x22E DUP3 PUSH2 0x1EE JUMP JUMPDEST SWAP2 POP PUSH2 0x239 DUP4 PUSH2 0x1EE JUMP JUMPDEST SWAP3 POP DUP3 PUSH2 0x249 JUMPI PUSH2 0x248 PUSH2 0x1F7 JUMP JUMPDEST JUMPDEST DUP3 DUP3 MOD SWAP1 POP SWAP3 SWAP2 POP POP JUMP JUMPDEST PUSH0 DUP3 DUP3 MSTORE PUSH1 0x20 DUP3 ADD SWAP1 POP SWAP3 SWAP2 POP POP JUMP JUMPDEST PUSH32 0x4576656E2076616C756520726571756972656400000000000000000000000000 PUSH0 DUP3 ADD MSTORE POP JUMP JUMPDEST PUSH0 PUSH2 0x298 PUSH1 0x13 DUP4 PUSH2 0x254 JUMP JUMPDEST SWAP2 POP PUSH2 0x2A3 DUP3 PUSH2 0x264 JUMP JUMPDEST PUSH1 0x20 DUP3 ADD SWAP1 POP SWAP2 SWAP1 POP JUMP JUMPDEST PUSH0 PUSH1 0x20 DUP3 ADD SWAP1 POP DUP2 DUP2 SUB PUSH0 DUP4 ADD MSTORE PUSH2 0x2C5 DUP2 PUSH2 0x28C JUMP JUMPDEST SWAP1 POP SWAP2 SWAP1 POP JUMP JUMPDEST PUSH0 PUSH2 0x2D6 DUP3 PUSH2 0x1EE JUMP JUMPDEST SWAP2 POP PUSH2 0x2E1 DUP4 PUSH2 0x1EE JUMP JUMPDEST SWAP3 POP DUP3 PUSH2 0x2F1 JUMPI PUSH2 0x2F0 PUSH2 0x1F7 JUMP JUMPDEST JUMPDEST DUP3 DUP3 DIV SWAP1 POP SWAP3 SWAP2 POP POP JUMP INVALID LOG2 PUSH5 0x6970667358 0x22 SLT KECCAK256 BLOBBASEFEE SUB 0xF DUP11 EXTCODECOPY 0xE9 0xAD 0xBF PUSH14 0x6FC222258BDCCC06189913EB4FF SELFDESTRUCT 0xD7 PUSH7 0xEE82BE93FF8E64 PUSH20 0x6F6C634300081900330000000000000000000000 "
				},
				"gasEstimates": {
					"creation": {
						"codeDepositCost": "163600",
						"executionCost": "206",
						"totalCost": "163806"
					},
					"external": {
						"splitEther(address,address)": "infinite",
						"testRevert()": "143"
					}
				},
				"methodIdentifiers": {
					"splitEther(address,address)": "69b08d7d",
					"testRevert()": "a26388bb"
				}
			},
			"storageLayout": {
				"storage": [],
				"types": null
			},
			"userdoc": {
				"kind": "user",
				"methods": {},
				"version": 1
			}
		}
	}
}