{
	"contracts/Array.sol": {
		"Array": {
			"abi": [
				{
					"inputs": [],
					"name": "testArray",
					"outputs": [],
					"stateMutability": "nonpayable",
					"type": "function"
				}
			],
			"devdoc": {
				"kind": "dev",
				"methods": {},
				"version": 1
			},
			"evm": {
				"assembly": "    /* \"contracts/Array.sol\":66:1538  contract Array {... */\n  mstore(0x40, 0x80)\n  callvalue\n  dup1\n  iszero\n  tag_1\n  jumpi\n  0x00\n  dup1\n  revert\ntag_1:\n  pop\n  dataSize(sub_0)\n  dup1\n  dataOffset(sub_0)\n  0x00\n  codecopy\n  0x00\n  return\nstop\n\nsub_0: assembly {\n        /* \"contracts/Array.sol\":66:1538  contract Array {... */\n      mstore(0x40, 0x80)\n      callvalue\n      dup1\n      iszero\n      tag_1\n      jumpi\n      0x00\n      dup1\n      revert\n    tag_1:\n      pop\n      jumpi(tag_2, lt(calldatasize, 0x04))\n      shr(0xe0, calldataload(0x00))\n      dup1\n      0x2283bffd\n      eq\n      tag_3\n      jumpi\n    tag_2:\n      0x00\n      dup1\n      revert\n        /* \"contracts/Array.sol\":182:1536  function testArray() public {... */\n    tag_3:\n      tag_4\n      tag_5\n      jump\t// in\n    tag_4:\n      stop\n    tag_5:\n        /* \"contracts/Array.sol\":220:241  uint[3] memory nftMem */\n      tag_7\n      tag_8\n      jump\t// in\n    tag_7:\n        /* \"contracts/Array.sol\":251:273  uint[3] memory nftMem1 */\n      0x00\n        /* \"contracts/Array.sol\":251:293  uint[3] memory nftMem1 = [uint(100), 2, 3] */\n      mload(0x40)\n      dup1\n      0x60\n      add\n      0x40\n      mstore\n      dup1\n        /* \"contracts/Array.sol\":282:285  100 */\n      0x64\n        /* \"contracts/Array.sol\":251:293  uint[3] memory nftMem1 = [uint(100), 2, 3] */\n      dup2\n      mstore\n      0x20\n      add\n        /* \"contracts/Array.sol\":288:289  2 */\n      0x02\n        /* \"contracts/Array.sol\":251:293  uint[3] memory nftMem1 = [uint(100), 2, 3] */\n      dup2\n      mstore\n      0x20\n      add\n        /* \"contracts/Array.sol\":291:292  3 */\n      0x03\n        /* \"contracts/Array.sol\":251:293  uint[3] memory nftMem1 = [uint(100), 2, 3] */\n      dup2\n      mstore\n      pop\n      swap1\n      pop\n        /* \"contracts/Array.sol\":484:506  uint[3] memory nftMem5 */\n      0x00\n        /* \"contracts/Array.sol\":484:524  uint[3] memory nftMem5 = [uint(1), 2, 3] */\n      mload(0x40)\n      dup1\n      0x60\n      add\n      0x40\n      mstore\n      dup1\n        /* \"contracts/Array.sol\":515:516  1 */\n      0x01\n        /* \"contracts/Array.sol\":484:524  uint[3] memory nftMem5 = [uint(1), 2, 3] */\n      dup2\n      mstore\n      0x20\n      add\n        /* \"contracts/Array.sol\":519:520  2 */\n      0x02\n        /* \"contracts/Array.sol\":484:524  uint[3] memory nftMem5 = [uint(1), 2, 3] */\n      dup2\n      mstore\n      0x20\n      add\n        /* \"contracts/Array.sol\":522:523  3 */\n      0x03\n        /* \"contracts/Array.sol\":484:524  uint[3] memory nftMem5 = [uint(1), 2, 3] */\n      dup2\n      mstore\n      pop\n      swap1\n      pop\n        /* \"contracts/Array.sol\":535:558  uint[3] storage nftMem3 */\n      0x00\n        /* \"contracts/Array.sol\":569:578  uint size */\n      dup1\n        /* \"contracts/Array.sol\":581:582  2 */\n      0x02\n        /* \"contracts/Array.sol\":569:582  uint size = 2 */\n      swap1\n      pop\n        /* \"contracts/Array.sol\":737:755  uint[] memory nft5 */\n      0x60\n        /* \"contracts/Array.sol\":765:784  uint[] storage nft6 */\n      0x00\n        /* \"contracts/Array.sol\":795:813  uint[] memory nft7 */\n      dup1\n        /* \"contracts/Array.sol\":827:831  size */\n      dup4\n        /* \"contracts/Array.sol\":816:832  new uint[](size) */\n      0xffffffffffffffff\n      dup2\n      gt\n      iszero\n      tag_9\n      jumpi\n      tag_10\n      tag_11\n      jump\t// in\n    tag_10:\n    tag_9:\n      mload(0x40)\n      swap1\n      dup1\n      dup3\n      mstore\n      dup1\n      0x20\n      mul\n      0x20\n      add\n      dup3\n      add\n      0x40\n      mstore\n      dup1\n      iszero\n      tag_12\n      jumpi\n      dup2\n      0x20\n      add\n      0x20\n      dup3\n      mul\n      dup1\n      calldatasize\n      dup4\n      calldatacopy\n      dup1\n      dup3\n      add\n      swap2\n      pop\n      pop\n      swap1\n      pop\n    tag_12:\n      pop\n        /* \"contracts/Array.sol\":795:832  uint[] memory nft7 = new uint[](size) */\n      swap1\n      pop\n        /* \"contracts/Array.sol\":959:986  uint[3] memory  staticArray */\n      0x00\n        /* \"contracts/Array.sol\":959:1004  uint[3] memory  staticArray = [uint(1), 2, 3] */\n      mload(0x40)\n      dup1\n      0x60\n      add\n      0x40\n      mstore\n      dup1\n        /* \"contracts/Array.sol\":995:996  1 */\n      0x01\n        /* \"contracts/Array.sol\":959:1004  uint[3] memory  staticArray = [uint(1), 2, 3] */\n      dup2\n      mstore\n      0x20\n      add\n        /* \"contracts/Array.sol\":999:1000  2 */\n      0x02\n        /* \"contracts/Array.sol\":959:1004  uint[3] memory  staticArray = [uint(1), 2, 3] */\n      dup2\n      mstore\n      0x20\n      add\n        /* \"contracts/Array.sol\":1002:1003  3 */\n      0x03\n        /* \"contracts/Array.sol\":959:1004  uint[3] memory  staticArray = [uint(1), 2, 3] */\n      dup2\n      mstore\n      pop\n      swap1\n      pop\n        /* \"contracts/Array.sol\":1136:1137  1 */\n      0x01\n        /* \"contracts/Array.sol\":1126:1130  nft7 */\n      dup3\n        /* \"contracts/Array.sol\":1131:1132  0 */\n      0x00\n        /* \"contracts/Array.sol\":1126:1133  nft7[0] */\n      dup2\n      mload\n      dup2\n      lt\n      tag_13\n      jumpi\n      tag_14\n      tag_15\n      jump\t// in\n    tag_14:\n    tag_13:\n      0x20\n      mul\n      0x20\n      add\n      add\n        /* \"contracts/Array.sol\":1126:1137  nft7[0] = 1 */\n      dup2\n      dup2\n      mstore\n      pop\n      pop\n        /* \"contracts/Array.sol\":1157:1158  2 */\n      0x02\n        /* \"contracts/Array.sol\":1147:1151  nft7 */\n      dup3\n        /* \"contracts/Array.sol\":1152:1153  1 */\n      0x01\n        /* \"contracts/Array.sol\":1147:1154  nft7[1] */\n      dup2\n      mload\n      dup2\n      lt\n      tag_16\n      jumpi\n      tag_17\n      tag_15\n      jump\t// in\n    tag_17:\n    tag_16:\n      0x20\n      mul\n      0x20\n      add\n      add\n        /* \"contracts/Array.sol\":1147:1158  nft7[1] = 2 */\n      dup2\n      dup2\n      mstore\n      pop\n      pop\n        /* \"contracts/Array.sol\":1170:1178  uint num */\n      0x00\n        /* \"contracts/Array.sol\":1181:1185  nft7 */\n      dup3\n        /* \"contracts/Array.sol\":1186:1187  0 */\n      0x00\n        /* \"contracts/Array.sol\":1181:1188  nft7[0] */\n      dup2\n      mload\n      dup2\n      lt\n      tag_18\n      jumpi\n      tag_19\n      tag_15\n      jump\t// in\n    tag_19:\n    tag_18:\n      0x20\n      mul\n      0x20\n      add\n      add\n      mload\n        /* \"contracts/Array.sol\":1170:1188  uint num = nft7[0] */\n      swap1\n      pop\n        /* \"contracts/Array.sol\":1216:1217  3 */\n      0x03\n        /* \"contracts/Array.sol\":1199:1210  staticArray */\n      dup3\n        /* \"contracts/Array.sol\":1211:1212  0 */\n      0x00\n        /* \"contracts/Array.sol\":1199:1213  staticArray[0] */\n      0x03\n      dup2\n      lt\n      tag_20\n      jumpi\n      tag_21\n      tag_15\n      jump\t// in\n    tag_21:\n    tag_20:\n      0x20\n      mul\n      add\n        /* \"contracts/Array.sol\":1199:1217  staticArray[0] = 3 */\n      dup2\n      dup2\n      mstore\n      pop\n      pop\n        /* \"contracts/Array.sol\":1244:1245  4 */\n      0x04\n        /* \"contracts/Array.sol\":1227:1238  staticArray */\n      dup3\n        /* \"contracts/Array.sol\":1239:1240  1 */\n      0x01\n        /* \"contracts/Array.sol\":1227:1241  staticArray[1] */\n      0x03\n      dup2\n      lt\n      tag_22\n      jumpi\n      tag_23\n      tag_15\n      jump\t// in\n    tag_23:\n    tag_22:\n      0x20\n      mul\n      add\n        /* \"contracts/Array.sol\":1227:1245  staticArray[1] = 4 */\n      dup2\n      dup2\n      mstore\n      pop\n      pop\n        /* \"contracts/Array.sol\":1256:1266  uint size1 */\n      0x00\n        /* \"contracts/Array.sol\":1269:1283  nftMem1.length */\n      0x03\n        /* \"contracts/Array.sol\":1256:1283  uint size1 = nftMem1.length */\n      swap1\n      pop\n        /* \"contracts/Array.sol\":1293:1303  uint size2 */\n      0x00\n        /* \"contracts/Array.sol\":1306:1310  nft7 */\n      dup5\n        /* \"contracts/Array.sol\":1306:1317  nft7.length */\n      mload\n        /* \"contracts/Array.sol\":1293:1317  uint size2 = nft7.length */\n      swap1\n      pop\n        /* \"contracts/Array.sol\":1328:1340  staticArray1 */\n      0x00\n        /* \"contracts/Array.sol\":1328:1347  staticArray1.push() */\n      0x01\n      dup2\n      0x01\n      dup2\n      sload\n      add\n      dup1\n      dup3\n      sstore\n      dup1\n      swap2\n      pop\n      pop\n      sub\n      swap1\n      0x00\n      mstore\n      pop(keccak256(0x00, 0x20))\n      pop\n        /* \"contracts/Array.sol\":1370:1382  staticArray1 */\n      0x00\n        /* \"contracts/Array.sol\":1388:1389  1 */\n      0x01\n        /* \"contracts/Array.sol\":1370:1390  staticArray1.push(1) */\n      swap1\n      dup1\n      0x01\n      dup2\n      sload\n      add\n      dup1\n      dup3\n      sstore\n      dup1\n      swap2\n      pop\n      pop\n      0x01\n      swap1\n      sub\n      swap1\n      0x00\n      mstore\n      keccak256(0x00, 0x20)\n      add\n      0x00\n      swap1\n      swap2\n      swap1\n      swap2\n      swap1\n      swap2\n      pop\n      sstore\n        /* \"contracts/Array.sol\":1400:1412  staticArray1 */\n      0x00\n        /* \"contracts/Array.sol\":1400:1418  staticArray1.pop() */\n      dup1\n      sload\n      dup1\n      tag_26\n      jumpi\n      tag_27\n      tag_28\n      jump\t// in\n    tag_27:\n    tag_26:\n      0x01\n      swap1\n      sub\n      dup2\n      dup2\n      swap1\n      0x00\n      mstore\n      keccak256(0x00, 0x20)\n      add\n      0x00\n      swap1\n      sstore\n      swap1\n      sstore\n        /* \"contracts/Array.sol\":210:1536  {... */\n      pop\n      pop\n      pop\n      pop\n      pop\n      pop\n      pop\n      pop\n      pop\n      pop\n      pop\n      pop\n        /* \"contracts/Array.sol\":182:1536  function testArray() public {... */\n      jump\t// out\n    tag_8:\n      mload(0x40)\n      dup1\n      0x60\n      add\n      0x40\n      mstore\n      dup1\n      0x03\n      swap1\n      0x20\n      dup3\n      mul\n      dup1\n      calldatasize\n      dup4\n      calldatacopy\n      dup1\n      dup3\n      add\n      swap2\n      pop\n      pop\n      swap1\n      pop\n      pop\n      swap1\n      jump\t// out\n        /* \"#utility.yul\":7:187   */\n    tag_11:\n        /* \"#utility.yul\":55:132   */\n      0x4e487b7100000000000000000000000000000000000000000000000000000000\n        /* \"#utility.yul\":52:53   */\n      0x00\n        /* \"#utility.yul\":45:133   */\n      mstore\n        /* \"#utility.yul\":152:156   */\n      0x41\n        /* \"#utility.yul\":149:150   */\n      0x04\n        /* \"#utility.yul\":142:157   */\n      mstore\n        /* \"#utility.yul\":176:180   */\n      0x24\n        /* \"#utility.yul\":173:174   */\n      0x00\n        /* \"#utility.yul\":166:181   */\n      revert\n        /* \"#utility.yul\":193:373   */\n    tag_15:\n        /* \"#utility.yul\":241:318   */\n      0x4e487b7100000000000000000000000000000000000000000000000000000000\n        /* \"#utility.yul\":238:239   */\n      0x00\n        /* \"#utility.yul\":231:319   */\n      mstore\n        /* \"#utility.yul\":338:342   */\n      0x32\n        /* \"#utility.yul\":335:336   */\n      0x04\n        /* \"#utility.yul\":328:343   */\n      mstore\n        /* \"#utility.yul\":362:366   */\n      0x24\n        /* \"#utility.yul\":359:360   */\n      0x00\n        /* \"#utility.yul\":352:367   */\n      revert\n        /* \"#utility.yul\":379:559   */\n    tag_28:\n        /* \"#utility.yul\":427:504   */\n      0x4e487b7100000000000000000000000000000000000000000000000000000000\n        /* \"#utility.yul\":424:425   */\n      0x00\n        /* \"#utility.yul\":417:505   */\n      mstore\n        /* \"#utility.yul\":524:528   */\n      0x31\n        /* \"#utility.yul\":521:522   */\n      0x04\n        /* \"#utility.yul\":514:529   */\n      mstore\n        /* \"#utility.yul\":548:552   */\n      0x24\n        /* \"#utility.yul\":545:546   */\n      0x00\n        /* \"#utility.yul\":538:553   */\n      revert\n\n    auxdata: 0xa26469706673582212200ea59e7f2872e06cb7cfdc54d09ac72190d00c0a508583d663c4347c5cd94daf64736f6c63430008190033\n}\n",
				"bytecode": {
					"linkReferences": {},
					"object": "6080604052348015600e575f80fd5b506102f08061001c5f395ff3fe608060405234801561000f575f80fd5b5060043610610029575f3560e01c80632283bffd1461002d575b5f80fd5b610035610037565b005b61003f610211565b5f60405180606001604052806064815260200160028152602001600381525090505f60405180606001604052806001815260200160028152602001600381525090505f806002905060605f808367ffffffffffffffff8111156100a5576100a4610233565b5b6040519080825280602002602001820160405280156100d35781602001602082028036833780820191505090505b5090505f60405180606001604052806001815260200160028152602001600381525090506001825f8151811061010c5761010b610260565b5b60200260200101818152505060028260018151811061012e5761012d610260565b5b6020026020010181815250505f825f8151811061014e5761014d610260565b5b602002602001015190506003825f6003811061016d5761016c610260565b5b60200201818152505060048260016003811061018c5761018b610260565b5b6020020181815250505f600390505f845190505f60018160018154018082558091505003905f5260205f2050505f6001908060018154018082558091505060019003905f5260205f20015f90919091909150555f8054806101f0576101ef61028d565b5b600190038181905f5260205f20015f90559055505050505050505050505050565b6040518060600160405280600390602082028036833780820191505090505090565b7f4e487b71000000000000000000000000000000000000000000000000000000005f52604160045260245ffd5b7f4e487b71000000000000000000000000000000000000000000000000000000005f52603260045260245ffd5b7f4e487b71000000000000000000000000000000000000000000000000000000005f52603160045260245ffdfea26469706673582212200ea59e7f2872e06cb7cfdc54d09ac72190d00c0a508583d663c4347c5cd94daf64736f6c63430008190033",
					"opcodes": "PUSH1 0x80 PUSH1 0x40 MSTORE CALLVALUE DUP1 ISZERO PUSH1 0xE JUMPI PUSH0 DUP1 REVERT JUMPDEST POP PUSH2 0x2F0 DUP1 PUSH2 0x1C PUSH0 CODECOPY PUSH0 RETURN INVALID PUSH1 0x80 PUSH1 0x40 MSTORE CALLVALUE DUP1 ISZERO PUSH2 0xF JUMPI PUSH0 DUP1 REVERT JUMPDEST POP PUSH1 0x4 CALLDATASIZE LT PUSH2 0x29 JUMPI PUSH0 CALLDATALOAD PUSH1 0xE0 SHR DUP1 PUSH4 0x2283BFFD EQ PUSH2 0x2D JUMPI JUMPDEST PUSH0 DUP1 REVERT JUMPDEST PUSH2 0x35 PUSH2 0x37 JUMP JUMPDEST STOP JUMPDEST PUSH2 0x3F PUSH2 0x211 JUMP JUMPDEST PUSH0 PUSH1 0x40 MLOAD DUP1 PUSH1 0x60 ADD PUSH1 0x40 MSTORE DUP1 PUSH1 0x64 DUP2 MSTORE PUSH1 0x20 ADD PUSH1 0x2 DUP2 MSTORE PUSH1 0x20 ADD PUSH1 0x3 DUP2 MSTORE POP SWAP1 POP PUSH0 PUSH1 0x40 MLOAD DUP1 PUSH1 0x60 ADD PUSH1 0x40 MSTORE DUP1 PUSH1 0x1 DUP2 MSTORE PUSH1 0x20 ADD PUSH1 0x2 DUP2 MSTORE PUSH1 0x20 ADD PUSH1 0x3 DUP2 MSTORE POP SWAP1 POP PUSH0 DUP1 PUSH1 0x2 SWAP1 POP PUSH1 0x60 PUSH0 DUP1 DUP4 PUSH8 0xFFFFFFFFFFFFFFFF DUP2 GT ISZERO PUSH2 0xA5 JUMPI PUSH2 0xA4 PUSH2 0x233 JUMP JUMPDEST JUMPDEST PUSH1 0x40 MLOAD SWAP1 DUP1 DUP3 MSTORE DUP1 PUSH1 0x20 MUL PUSH1 0x20 ADD DUP3 ADD PUSH1 0x40 MSTORE DUP1 ISZERO PUSH2 0xD3 JUMPI DUP2 PUSH1 0x20 ADD PUSH1 0x20 DUP3 MUL DUP1 CALLDATASIZE DUP4 CALLDATACOPY DUP1 DUP3 ADD SWAP2 POP POP SWAP1 POP JUMPDEST POP SWAP1 POP PUSH0 PUSH1 0x40 MLOAD DUP1 PUSH1 0x60 ADD PUSH1 0x40 MSTORE DUP1 PUSH1 0x1 DUP2 MSTORE PUSH1 0x20 ADD PUSH1 0x2 DUP2 MSTORE PUSH1 0x20 ADD PUSH1 0x3 DUP2 MSTORE POP SWAP1 POP PUSH1 0x1 DUP3 PUSH0 DUP2 MLOAD DUP2 LT PUSH2 0x10C JUMPI PUSH2 0x10B PUSH2 0x260 JUMP JUMPDEST JUMPDEST PUSH1 0x20 MUL PUSH1 0x20 ADD ADD DUP2 DUP2 MSTORE POP POP PUSH1 0x2 DUP3 PUSH1 0x1 DUP2 MLOAD DUP2 LT PUSH2 0x12E JUMPI PUSH2 0x12D PUSH2 0x260 JUMP JUMPDEST JUMPDEST PUSH1 0x20 MUL PUSH1 0x20 ADD ADD DUP2 DUP2 MSTORE POP POP PUSH0 DUP3 PUSH0 DUP2 MLOAD DUP2 LT PUSH2 0x14E JUMPI PUSH2 0x14D PUSH2 0x260 JUMP JUMPDEST JUMPDEST PUSH1 0x20 MUL PUSH1 0x20 ADD ADD MLOAD SWAP1 POP PUSH1 0x3 DUP3 PUSH0 PUSH1 0x3 DUP2 LT PUSH2 0x16D JUMPI PUSH2 0x16C PUSH2 0x260 JUMP JUMPDEST JUMPDEST PUSH1 0x20 MUL ADD DUP2 DUP2 MSTORE POP POP PUSH1 0x4 DUP3 PUSH1 0x1 PUSH1 0x3 DUP2 LT PUSH2 0x18C JUMPI PUSH2 0x18B PUSH2 0x260 JUMP JUMPDEST JUMPDEST PUSH1 0x20 MUL ADD DUP2 DUP2 MSTORE POP POP PUSH0 PUSH1 0x3 SWAP1 POP PUSH0 DUP5 MLOAD SWAP1 POP PUSH0 PUSH1 0x1 DUP2 PUSH1 0x1 DUP2 SLOAD ADD DUP1 DUP3 SSTORE DUP1 SWAP2 POP POP SUB SWAP1 PUSH0 MSTORE PUSH1 0x20 PUSH0 KECCAK256 POP POP PUSH0 PUSH1 0x1 SWAP1 DUP1 PUSH1 0x1 DUP2 SLOAD ADD DUP1 DUP3 SSTORE DUP1 SWAP2 POP POP PUSH1 0x1 SWAP1 SUB SWAP1 PUSH0 MSTORE PUSH1 0x20 PUSH0 KECCAK256 ADD PUSH0 SWAP1 SWAP2 SWAP1 SWAP2 SWAP1 SWAP2 POP SSTORE PUSH0 DUP1 SLOAD DUP1 PUSH2 0x1F0 JUMPI PUSH2 0x1EF PUSH2 0x28D JUMP JUMPDEST JUMPDEST PUSH1 0x1 SWAP1 SUB DUP2 DUP2 SWAP1 PUSH0 MSTORE PUSH1 0x20 PUSH0 KECCAK256 ADD PUSH0 SWAP1 SSTORE SWAP1 SSTORE POP POP POP POP POP POP POP POP POP POP POP POP JUMP JUMPDEST PUSH1 0x40 MLOAD DUP1 PUSH1 0x60 ADD PUSH1 0x40 MSTORE DUP1 PUSH1 0x3 SWAP1 PUSH1 0x20 DUP3 MUL DUP1 CALLDATASIZE DUP4 CALLDATACOPY DUP1 DUP3 ADD SWAP2 POP POP SWAP1 POP POP SWAP1 JUMP JUMPDEST PUSH32 0x4E487B7100000000000000000000000000000000000000000000000000000000 PUSH0 MSTORE PUSH1 0x41 PUSH1 0x4 MSTORE PUSH1 0x24 PUSH0 REVERT JUMPDEST PUSH32 0x4E487B7100000000000000000000000000000000000000000000000000000000 PUSH0 MSTORE PUSH1 0x32 PUSH1 0x4 MSTORE PUSH1 0x24 PUSH0 REVERT JUMPDEST PUSH32 0x4E487B7100000000000000000000000000000000000000000000000000000000 PUSH0 MSTORE PUSH1 0x31 PUSH1 0x4 MSTORE PUSH1 0x24 PUSH0 REVERT INVALID LOG2 PUSH5 0x6970667358 0x22 SLT KECCAK256 0xE 0xA5 SWAP15 PUSH32 0x2872E06CB7CFDC54D09AC72190D00C0A508583D663C4347C5CD94DAF64736F6C PUSH4 0x43000819 STOP CALLER "
				},
				"gasEstimates": {
					"creation": {
						"codeDepositCost": "150400",
						"executionCost": "194",
						"totalCost": "150594"
					},
					"external": {
						"testArray()": "infinite"
					}
				},
				"methodIdentifiers": {
					"testArray()": "2283bffd"
				}
			},
			"storageLayout": {
				"storage": [
					{
						"astId": 4,
						"contract": "contracts/Array.sol:Array",
						"label": "staticArray1",
						"offset": 0,
						"slot": "0",
						"type": "t_array(t_uint256)dyn_storage"
					}
				],
				"types": {
					"t_array(t_uint256)dyn_storage": {
						"base": "t_uint256",
						"encoding": "dynamic_array",
						"label": "uint256[]",
						"numberOfBytes": "32"
					},
					"t_uint256": {
						"encoding": "inplace",
						"label": "uint256",
						"numberOfBytes": "32"
					}
				}
			},
			"userdoc": {
				"kind": "user",
				"methods": {},
				"version": 1
			}
		}
	}
}