{
	"contracts/MulitArray.sol": {
		"MultiArray": {
			"abi": [
				{
					"inputs": [],
					"name": "initArray",
					"outputs": [
						{
							"internalType": "uint256[][]",
							"name": "",
							"type": "uint256[][]"
						}
					],
					"stateMutability": "nonpayable",
					"type": "function"
				},
				{
					"inputs": [],
					"name": "test",
					"outputs": [],
					"stateMutability": "nonpayable",
					"type": "function"
				},
				{
					"inputs": [],
					"name": "validPush",
					"outputs": [],
					"stateMutability": "nonpayable",
					"type": "function"
				},
				{
					"inputs": [],
					"name": "visitMemoryArr",
					"outputs": [],
					"stateMutability": "nonpayable",
					"type": "function"
				}
			],
			"devdoc": {
				"kind": "dev",
				"methods": {},
				"version": 1
			},
			"evm": {
				"assembly": "    /* \"contracts/MulitArray.sol\":66:1627  contract MultiArray {... */\n  mstore(0x40, 0x80)\n    /* \"contracts/MulitArray.sol\":1325:1391  uint256[][] storageArr3 = [[uint256(1), 2, 3], [uint256(4), 5, 6]] */\n  mload(0x40)\n  dup1\n  0x40\n  add\n  0x40\n  mstore\n  dup1\n  mload(0x40)\n  dup1\n  0x60\n  add\n  0x40\n  mstore\n  dup1\n    /* \"contracts/MulitArray.sol\":1361:1362  1 */\n  0x01\n    /* \"contracts/MulitArray.sol\":1325:1391  uint256[][] storageArr3 = [[uint256(1), 2, 3], [uint256(4), 5, 6]] */\n  dup2\n  mstore\n  0x20\n  add\n    /* \"contracts/MulitArray.sol\":1365:1366  2 */\n  0x02\n    /* \"contracts/MulitArray.sol\":1325:1391  uint256[][] storageArr3 = [[uint256(1), 2, 3], [uint256(4), 5, 6]] */\n  dup2\n  mstore\n  0x20\n  add\n    /* \"contracts/MulitArray.sol\":1368:1369  3 */\n  0x03\n    /* \"contracts/MulitArray.sol\":1325:1391  uint256[][] storageArr3 = [[uint256(1), 2, 3], [uint256(4), 5, 6]] */\n  dup2\n  mstore\n  pop\n  dup2\n  mstore\n  0x20\n  add\n  mload(0x40)\n  dup1\n  0x60\n  add\n  0x40\n  mstore\n  dup1\n    /* \"contracts/MulitArray.sol\":1381:1382  4 */\n  0x04\n    /* \"contracts/MulitArray.sol\":1325:1391  uint256[][] storageArr3 = [[uint256(1), 2, 3], [uint256(4), 5, 6]] */\n  dup2\n  mstore\n  0x20\n  add\n    /* \"contracts/MulitArray.sol\":1385:1386  5 */\n  0x05\n    /* \"contracts/MulitArray.sol\":1325:1391  uint256[][] storageArr3 = [[uint256(1), 2, 3], [uint256(4), 5, 6]] */\n  dup2\n  mstore\n  0x20\n  add\n    /* \"contracts/MulitArray.sol\":1388:1389  6 */\n  0x06\n    /* \"contracts/MulitArray.sol\":1325:1391  uint256[][] storageArr3 = [[uint256(1), 2, 3], [uint256(4), 5, 6]] */\n  dup2\n  mstore\n  pop\n  dup2\n  mstore\n  pop\n  0x04\n  swap1\n  0x02\n  tag_1\n  swap3\n  swap2\n  swap1\n  tag_2\n  jump\t// in\ntag_1:\n  pop\n    /* \"contracts/MulitArray.sol\":66:1627  contract MultiArray {... */\n  callvalue\n  dup1\n  iszero\n  tag_3\n  jumpi\n  0x00\n  dup1\n  revert\ntag_3:\n  pop\n  jump(tag_4)\ntag_2:\n  dup3\n  dup1\n  sload\n  dup3\n  dup3\n  sstore\n  swap1\n  0x00\n  mstore\n  keccak256(0x00, 0x20)\n  swap1\n  dup2\n  add\n  swap3\n  dup3\n  iszero\n  tag_5\n  jumpi\n  swap2\n  0x20\n  mul\n  dup3\n  add\ntag_6:\n  dup3\n  dup2\n  gt\n  iszero\n  tag_7\n  jumpi\n  dup3\n  mload\n  dup3\n  swap1\n  0x03\n  tag_8\n  swap3\n  swap2\n  swap1\n  tag_9\n  jump\t// in\ntag_8:\n  pop\n  swap2\n  0x20\n  add\n  swap2\n  swap1\n  0x01\n  add\n  swap1\n  jump(tag_6)\ntag_7:\ntag_5:\n  pop\n  swap1\n  pop\n  tag_10\n  swap2\n  swap1\n  tag_11\n  jump\t// in\ntag_10:\n  pop\n  swap1\n  jump\t// out\ntag_9:\n  dup3\n  dup1\n  sload\n  dup3\n  dup3\n  sstore\n  swap1\n  0x00\n  mstore\n  keccak256(0x00, 0x20)\n  swap1\n  dup2\n  add\n  swap3\n  dup3\n  iszero\n  tag_12\n  jumpi\n  swap2\n  0x20\n  mul\n  dup3\n  add\ntag_13:\n  dup3\n  dup2\n  gt\n  iszero\n  tag_14\n  jumpi\n  dup3\n  mload\n  dup3\n  sstore\n  swap2\n  0x20\n  add\n  swap2\n  swap1\n  0x01\n  add\n  swap1\n  jump(tag_13)\ntag_14:\ntag_12:\n  pop\n  swap1\n  pop\n  tag_15\n  swap2\n  swap1\n  tag_16\n  jump\t// in\ntag_15:\n  pop\n  swap1\n  jump\t// out\ntag_11:\ntag_17:\n  dup1\n  dup3\n  gt\n  iszero\n  tag_18\n  jumpi\n  0x00\n  dup2\n  dup2\n  tag_19\n  swap2\n  swap1\n  tag_20\n  jump\t// in\ntag_19:\n  pop\n  0x01\n  add\n  jump(tag_17)\ntag_18:\n  pop\n  swap1\n  jump\t// out\ntag_16:\ntag_21:\n  dup1\n  dup3\n  gt\n  iszero\n  tag_22\n  jumpi\n  0x00\n  dup2\n  0x00\n  swap1\n  sstore\n  pop\n  0x01\n  add\n  jump(tag_21)\ntag_22:\n  pop\n  swap1\n  jump\t// out\ntag_20:\n  pop\n  dup1\n  sload\n  0x00\n  dup3\n  sstore\n  swap1\n  0x00\n  mstore\n  keccak256(0x00, 0x20)\n  swap1\n  dup2\n  add\n  swap1\n  tag_24\n  swap2\n  swap1\n  tag_16\n  jump\t// in\ntag_24:\n  pop\n  jump\t// out\ntag_4:\n  dataSize(sub_0)\n  dup1\n  dataOffset(sub_0)\n  0x00\n  codecopy\n  0x00\n  return\nstop\n\nsub_0: assembly {\n        /* \"contracts/MulitArray.sol\":66:1627  contract MultiArray {... */\n      mstore(0x40, 0x80)\n      callvalue\n      dup1\n      iszero\n      tag_1\n      jumpi\n      0x00\n      dup1\n      revert\n    tag_1:\n      pop\n      jumpi(tag_2, lt(calldatasize, 0x04))\n      shr(0xe0, calldataload(0x00))\n      dup1\n      0x06346890\n      eq\n      tag_3\n      jumpi\n      dup1\n      0x82a8181b\n      eq\n      tag_4\n      jumpi\n      dup1\n      0x835330a9\n      eq\n      tag_5\n      jumpi\n      dup1\n      0xf8a8fd6d\n      eq\n      tag_6\n      jumpi\n    tag_2:\n      0x00\n      dup1\n      revert\n        /* \"contracts/MulitArray.sol\":1462:1625  function visitMemoryArr() public {... */\n    tag_3:\n      tag_7\n      tag_8\n      jump\t// in\n    tag_7:\n      stop\n        /* \"contracts/MulitArray.sol\":759:995  function initArray() public returns (uint256[][] memory) {... */\n    tag_4:\n      tag_9\n      tag_10\n      jump\t// in\n    tag_9:\n      mload(0x40)\n      tag_11\n      swap2\n      swap1\n      tag_12\n      jump\t// in\n    tag_11:\n      mload(0x40)\n      dup1\n      swap2\n      sub\n      swap1\n      return\n        /* \"contracts/MulitArray.sol\":1201:1319  function validPush() public {... */\n    tag_5:\n      tag_13\n      tag_14\n      jump\t// in\n    tag_13:\n      stop\n        /* \"contracts/MulitArray.sol\":92:724  function test() public {... */\n    tag_6:\n      tag_15\n      tag_16\n      jump\t// in\n    tag_15:\n      stop\n        /* \"contracts/MulitArray.sol\":1462:1625  function visitMemoryArr() public {... */\n    tag_8:\n        /* \"contracts/MulitArray.sol\":1505:1529  uint256[3][2] memory arr */\n      0x00\n        /* \"contracts/MulitArray.sol\":1505:1572  uint256[3][2] memory arr = [[uint256(1), 2, 3], [uint256(4), 5, 6]] */\n      mload(0x40)\n      dup1\n      0x40\n      add\n      0x40\n      mstore\n      dup1\n      mload(0x40)\n      dup1\n      0x60\n      add\n      0x40\n      mstore\n      dup1\n        /* \"contracts/MulitArray.sol\":1542:1543  1 */\n      0x01\n        /* \"contracts/MulitArray.sol\":1505:1572  uint256[3][2] memory arr = [[uint256(1), 2, 3], [uint256(4), 5, 6]] */\n      dup2\n      mstore\n      0x20\n      add\n        /* \"contracts/MulitArray.sol\":1546:1547  2 */\n      0x02\n        /* \"contracts/MulitArray.sol\":1505:1572  uint256[3][2] memory arr = [[uint256(1), 2, 3], [uint256(4), 5, 6]] */\n      dup2\n      mstore\n      0x20\n      add\n        /* \"contracts/MulitArray.sol\":1549:1550  3 */\n      0x03\n        /* \"contracts/MulitArray.sol\":1505:1572  uint256[3][2] memory arr = [[uint256(1), 2, 3], [uint256(4), 5, 6]] */\n      dup2\n      mstore\n      pop\n      dup2\n      mstore\n      0x20\n      add\n      mload(0x40)\n      dup1\n      0x60\n      add\n      0x40\n      mstore\n      dup1\n        /* \"contracts/MulitArray.sol\":1562:1563  4 */\n      0x04\n        /* \"contracts/MulitArray.sol\":1505:1572  uint256[3][2] memory arr = [[uint256(1), 2, 3], [uint256(4), 5, 6]] */\n      dup2\n      mstore\n      0x20\n      add\n        /* \"contracts/MulitArray.sol\":1566:1567  5 */\n      0x05\n        /* \"contracts/MulitArray.sol\":1505:1572  uint256[3][2] memory arr = [[uint256(1), 2, 3], [uint256(4), 5, 6]] */\n      dup2\n      mstore\n      0x20\n      add\n        /* \"contracts/MulitArray.sol\":1569:1570  6 */\n      0x06\n        /* \"contracts/MulitArray.sol\":1505:1572  uint256[3][2] memory arr = [[uint256(1), 2, 3], [uint256(4), 5, 6]] */\n      dup2\n      mstore\n      pop\n      dup2\n      mstore\n      pop\n      swap1\n      pop\n        /* \"contracts/MulitArray.sol\":1594:1595  7 */\n      0x07\n        /* \"contracts/MulitArray.sol\":1582:1585  arr */\n      dup2\n        /* \"contracts/MulitArray.sol\":1586:1587  0 */\n      0x00\n        /* \"contracts/MulitArray.sol\":1582:1588  arr[0] */\n      0x02\n      dup2\n      lt\n      tag_18\n      jumpi\n      tag_19\n      tag_20\n      jump\t// in\n    tag_19:\n    tag_18:\n      0x20\n      mul\n      add\n      mload\n        /* \"contracts/MulitArray.sol\":1589:1590  0 */\n      0x00\n        /* \"contracts/MulitArray.sol\":1582:1591  arr[0][0] */\n      0x03\n      dup2\n      lt\n      tag_21\n      jumpi\n      tag_22\n      tag_20\n      jump\t// in\n    tag_22:\n    tag_21:\n      0x20\n      mul\n      add\n        /* \"contracts/MulitArray.sol\":1582:1595  arr[0][0] = 7 */\n      dup2\n      dup2\n      mstore\n      pop\n      pop\n        /* \"contracts/MulitArray.sol\":1617:1618  8 */\n      0x08\n        /* \"contracts/MulitArray.sol\":1605:1608  arr */\n      dup2\n        /* \"contracts/MulitArray.sol\":1609:1610  1 */\n      0x01\n        /* \"contracts/MulitArray.sol\":1605:1611  arr[1] */\n      0x02\n      dup2\n      lt\n      tag_23\n      jumpi\n      tag_24\n      tag_20\n      jump\t// in\n    tag_24:\n    tag_23:\n      0x20\n      mul\n      add\n      mload\n        /* \"contracts/MulitArray.sol\":1612:1613  1 */\n      0x01\n        /* \"contracts/MulitArray.sol\":1605:1614  arr[1][1] */\n      0x03\n      dup2\n      lt\n      tag_25\n      jumpi\n      tag_26\n      tag_20\n      jump\t// in\n    tag_26:\n    tag_25:\n      0x20\n      mul\n      add\n        /* \"contracts/MulitArray.sol\":1605:1618  arr[1][1] = 8 */\n      dup2\n      dup2\n      mstore\n      pop\n      pop\n        /* \"contracts/MulitArray.sol\":1495:1625  {... */\n      pop\n        /* \"contracts/MulitArray.sol\":1462:1625  function visitMemoryArr() public {... */\n      jump\t// out\n        /* \"contracts/MulitArray.sol\":759:995  function initArray() public returns (uint256[][] memory) {... */\n    tag_10:\n        /* \"contracts/MulitArray.sol\":796:814  uint256[][] memory */\n      0x60\n        /* \"contracts/MulitArray.sol\":826:835  uint256 n */\n      0x00\n        /* \"contracts/MulitArray.sol\":838:839  2 */\n      0x02\n        /* \"contracts/MulitArray.sol\":826:839  uint256 n = 2 */\n      swap1\n      pop\n        /* \"contracts/MulitArray.sol\":849:858  uint256 m */\n      0x00\n        /* \"contracts/MulitArray.sol\":861:862  3 */\n      0x03\n        /* \"contracts/MulitArray.sol\":849:862  uint256 m = 3 */\n      swap1\n      pop\n        /* \"contracts/MulitArray.sol\":877:886  uint256 i */\n      0x00\n        /* \"contracts/MulitArray.sol\":872:962  for (uint256 i = 0; i < n; i++) {... */\n    tag_28:\n        /* \"contracts/MulitArray.sol\":896:897  n */\n      dup3\n        /* \"contracts/MulitArray.sol\":892:893  i */\n      dup2\n        /* \"contracts/MulitArray.sol\":892:897  i < n */\n      lt\n        /* \"contracts/MulitArray.sol\":872:962  for (uint256 i = 0; i < n; i++) {... */\n      iszero\n      tag_29\n      jumpi\n        /* \"contracts/MulitArray.sol\":918:928  storageArr */\n      0x00\n        /* \"contracts/MulitArray.sol\":948:949  m */\n      dup3\n        /* \"contracts/MulitArray.sol\":934:950  new uint256[](m) */\n      0xffffffffffffffff\n      dup2\n      gt\n      iszero\n      tag_31\n      jumpi\n      tag_32\n      tag_33\n      jump\t// in\n    tag_32:\n    tag_31:\n      mload(0x40)\n      swap1\n      dup1\n      dup3\n      mstore\n      dup1\n      0x20\n      mul\n      0x20\n      add\n      dup3\n      add\n      0x40\n      mstore\n      dup1\n      iszero\n      tag_34\n      jumpi\n      dup2\n      0x20\n      add\n      0x20\n      dup3\n      mul\n      dup1\n      calldatasize\n      dup4\n      calldatacopy\n      dup1\n      dup3\n      add\n      swap2\n      pop\n      pop\n      swap1\n      pop\n    tag_34:\n      pop\n        /* \"contracts/MulitArray.sol\":918:951  storageArr.push(new uint256[](m)) */\n      swap1\n      dup1\n      0x01\n      dup2\n      sload\n      add\n      dup1\n      dup3\n      sstore\n      dup1\n      swap2\n      pop\n      pop\n      0x01\n      swap1\n      sub\n      swap1\n      0x00\n      mstore\n      keccak256(0x00, 0x20)\n      add\n      0x00\n      swap1\n      swap2\n      swap1\n      swap2\n      swap1\n      swap2\n      pop\n      swap1\n      dup1\n      mload\n      swap1\n      0x20\n      add\n      swap1\n      tag_36\n      swap3\n      swap2\n      swap1\n      tag_37\n      jump\t// in\n    tag_36:\n      pop\n        /* \"contracts/MulitArray.sol\":899:902  i++ */\n      dup1\n      dup1\n      0x01\n      add\n      swap2\n      pop\n      pop\n        /* \"contracts/MulitArray.sol\":872:962  for (uint256 i = 0; i < n; i++) {... */\n      jump(tag_28)\n    tag_29:\n      pop\n        /* \"contracts/MulitArray.sol\":978:988  storageArr */\n      0x00\n        /* \"contracts/MulitArray.sol\":971:988  return storageArr */\n      dup1\n      sload\n      dup1\n      0x20\n      mul\n      0x20\n      add\n      mload(0x40)\n      swap1\n      dup2\n      add\n      0x40\n      mstore\n      dup1\n      swap3\n      swap2\n      swap1\n      dup2\n      dup2\n      mstore\n      0x20\n      add\n      0x00\n      swap1\n    tag_38:\n      dup3\n      dup3\n      lt\n      iszero\n      tag_39\n      jumpi\n      dup4\n      dup3\n      swap1\n      0x00\n      mstore\n      keccak256(0x00, 0x20)\n      add\n      dup1\n      sload\n      dup1\n      0x20\n      mul\n      0x20\n      add\n      mload(0x40)\n      swap1\n      dup2\n      add\n      0x40\n      mstore\n      dup1\n      swap3\n      swap2\n      swap1\n      dup2\n      dup2\n      mstore\n      0x20\n      add\n      dup3\n      dup1\n      sload\n      dup1\n      iszero\n      tag_41\n      jumpi\n      0x20\n      mul\n      dup3\n      add\n      swap2\n      swap1\n      0x00\n      mstore\n      keccak256(0x00, 0x20)\n      swap1\n    tag_42:\n      dup2\n      sload\n      dup2\n      mstore\n      0x20\n      add\n      swap1\n      0x01\n      add\n      swap1\n      dup1\n      dup4\n      gt\n      tag_42\n      jumpi\n    tag_41:\n      pop\n      pop\n      pop\n      pop\n      pop\n      dup2\n      mstore\n      0x20\n      add\n      swap1\n      0x01\n      add\n      swap1\n      jump(tag_38)\n    tag_39:\n      pop\n      pop\n      pop\n      pop\n      swap3\n      pop\n      pop\n      pop\n        /* \"contracts/MulitArray.sol\":759:995  function initArray() public returns (uint256[][] memory) {... */\n      swap1\n      jump\t// out\n        /* \"contracts/MulitArray.sol\":1201:1319  function validPush() public {... */\n    tag_14:\n        /* \"contracts/MulitArray.sol\":1239:1250  storageArr2 */\n      0x01\n        /* \"contracts/MulitArray.sol\":1251:1252  0 */\n      0x00\n        /* \"contracts/MulitArray.sol\":1239:1253  storageArr2[0] */\n      0x03\n      dup2\n      lt\n      tag_44\n      jumpi\n      tag_45\n      tag_20\n      jump\t// in\n    tag_45:\n    tag_44:\n      add\n        /* \"contracts/MulitArray.sol\":1259:1262  999 */\n      0x03e7\n        /* \"contracts/MulitArray.sol\":1239:1263  storageArr2[0].push(999) */\n      swap1\n      dup1\n      0x01\n      dup2\n      sload\n      add\n      dup1\n      dup3\n      sstore\n      dup1\n      swap2\n      pop\n      pop\n      0x01\n      swap1\n      sub\n      swap1\n      0x00\n      mstore\n      keccak256(0x00, 0x20)\n      add\n      0x00\n      swap1\n      swap2\n      swap1\n      swap2\n      swap1\n      swap2\n      pop\n      sstore\n        /* \"contracts/MulitArray.sol\":1201:1319  function validPush() public {... */\n      jump\t// out\n        /* \"contracts/MulitArray.sol\":92:724  function test() public {... */\n    tag_16:\n        /* \"contracts/MulitArray.sol\":143:167  uint256[5][3] memory arr */\n      tag_49\n      tag_50\n      jump\t// in\n    tag_49:\n        /* \"contracts/MulitArray.sol\":202:230  uint256[3][3][3] memory arr1 */\n      tag_51\n      tag_52\n      jump\t// in\n    tag_51:\n        /* \"contracts/MulitArray.sol\":241:267  uint256[5][3] storage arr2 */\n      0x00\n        /* \"contracts/MulitArray.sol\":296:319  uint256[][] memory arr3 */\n      0x60\n        /* \"contracts/MulitArray.sol\":329:353  uint256[][3] memory arr4 */\n      tag_53\n      tag_54\n      jump\t// in\n    tag_53:\n        /* \"contracts/MulitArray.sol\":363:387  uint256[][] storage arr5 */\n      0x00\n        /* \"contracts/MulitArray.sol\":397:422  uint256[][3] storage arr6 */\n      dup1\n        /* \"contracts/MulitArray.sol\":454:479  uint256[3][2] memory arr7 */\n      0x00\n        /* \"contracts/MulitArray.sol\":454:522  uint256[3][2] memory arr7 = [[uint256(1), 2, 3], [uint256(4), 5, 6]] */\n      mload(0x40)\n      dup1\n      0x40\n      add\n      0x40\n      mstore\n      dup1\n      mload(0x40)\n      dup1\n      0x60\n      add\n      0x40\n      mstore\n      dup1\n        /* \"contracts/MulitArray.sol\":492:493  1 */\n      0x01\n        /* \"contracts/MulitArray.sol\":454:522  uint256[3][2] memory arr7 = [[uint256(1), 2, 3], [uint256(4), 5, 6]] */\n      dup2\n      mstore\n      0x20\n      add\n        /* \"contracts/MulitArray.sol\":496:497  2 */\n      0x02\n        /* \"contracts/MulitArray.sol\":454:522  uint256[3][2] memory arr7 = [[uint256(1), 2, 3], [uint256(4), 5, 6]] */\n      dup2\n      mstore\n      0x20\n      add\n        /* \"contracts/MulitArray.sol\":499:500  3 */\n      0x03\n        /* \"contracts/MulitArray.sol\":454:522  uint256[3][2] memory arr7 = [[uint256(1), 2, 3], [uint256(4), 5, 6]] */\n      dup2\n      mstore\n      pop\n      dup2\n      mstore\n      0x20\n      add\n      mload(0x40)\n      dup1\n      0x60\n      add\n      0x40\n      mstore\n      dup1\n        /* \"contracts/MulitArray.sol\":512:513  4 */\n      0x04\n        /* \"contracts/MulitArray.sol\":454:522  uint256[3][2] memory arr7 = [[uint256(1), 2, 3], [uint256(4), 5, 6]] */\n      dup2\n      mstore\n      0x20\n      add\n        /* \"contracts/MulitArray.sol\":516:517  5 */\n      0x05\n        /* \"contracts/MulitArray.sol\":454:522  uint256[3][2] memory arr7 = [[uint256(1), 2, 3], [uint256(4), 5, 6]] */\n      dup2\n      mstore\n      0x20\n      add\n        /* \"contracts/MulitArray.sol\":519:520  6 */\n      0x06\n        /* \"contracts/MulitArray.sol\":454:522  uint256[3][2] memory arr7 = [[uint256(1), 2, 3], [uint256(4), 5, 6]] */\n      dup2\n      mstore\n      pop\n      dup2\n      mstore\n      pop\n      swap1\n      pop\n        /* \"contracts/MulitArray.sol\":115:724  {... */\n      pop\n      pop\n      pop\n      pop\n      pop\n      pop\n      pop\n      pop\n        /* \"contracts/MulitArray.sol\":92:724  function test() public {... */\n      jump\t// out\n    tag_37:\n      dup3\n      dup1\n      sload\n      dup3\n      dup3\n      sstore\n      swap1\n      0x00\n      mstore\n      keccak256(0x00, 0x20)\n      swap1\n      dup2\n      add\n      swap3\n      dup3\n      iszero\n      tag_55\n      jumpi\n      swap2\n      0x20\n      mul\n      dup3\n      add\n    tag_56:\n      dup3\n      dup2\n      gt\n      iszero\n      tag_57\n      jumpi\n      dup3\n      mload\n      dup3\n      sstore\n      swap2\n      0x20\n      add\n      swap2\n      swap1\n      0x01\n      add\n      swap1\n      jump(tag_56)\n    tag_57:\n    tag_55:\n      pop\n      swap1\n      pop\n      tag_58\n      swap2\n      swap1\n      tag_59\n      jump\t// in\n    tag_58:\n      pop\n      swap1\n      jump\t// out\n    tag_50:\n      mload(0x40)\n      dup1\n      0x60\n      add\n      0x40\n      mstore\n      dup1\n      0x03\n      swap1\n    tag_60:\n      tag_61\n      tag_62\n      jump\t// in\n    tag_61:\n      dup2\n      mstore\n      0x20\n      add\n      swap1\n      0x01\n      swap1\n      sub\n      swap1\n      dup2\n      tag_60\n      jumpi\n      swap1\n      pop\n      pop\n      swap1\n      jump\t// out\n    tag_52:\n      mload(0x40)\n      dup1\n      0x60\n      add\n      0x40\n      mstore\n      dup1\n      0x03\n      swap1\n    tag_63:\n      tag_64\n      tag_65\n      jump\t// in\n    tag_64:\n      dup2\n      mstore\n      0x20\n      add\n      swap1\n      0x01\n      swap1\n      sub\n      swap1\n      dup2\n      tag_63\n      jumpi\n      swap1\n      pop\n      pop\n      swap1\n      jump\t// out\n    tag_54:\n      mload(0x40)\n      dup1\n      0x60\n      add\n      0x40\n      mstore\n      dup1\n      0x03\n      swap1\n    tag_66:\n      0x60\n      dup2\n      mstore\n      0x20\n      add\n      swap1\n      0x01\n      swap1\n      sub\n      swap1\n      dup2\n      tag_66\n      jumpi\n      swap1\n      pop\n      pop\n      swap1\n      jump\t// out\n    tag_59:\n    tag_67:\n      dup1\n      dup3\n      gt\n      iszero\n      tag_68\n      jumpi\n      0x00\n      dup2\n      0x00\n      swap1\n      sstore\n      pop\n      0x01\n      add\n      jump(tag_67)\n    tag_68:\n      pop\n      swap1\n      jump\t// out\n    tag_62:\n      mload(0x40)\n      dup1\n      0xa0\n      add\n      0x40\n      mstore\n      dup1\n      0x05\n      swap1\n      0x20\n      dup3\n      mul\n      dup1\n      calldatasize\n      dup4\n      calldatacopy\n      dup1\n      dup3\n      add\n      swap2\n      pop\n      pop\n      swap1\n      pop\n      pop\n      swap1\n      jump\t// out\n    tag_65:\n      mload(0x40)\n      dup1\n      0x60\n      add\n      0x40\n      mstore\n      dup1\n      0x03\n      swap1\n    tag_69:\n      tag_70\n      tag_71\n      jump\t// in\n    tag_70:\n      dup2\n      mstore\n      0x20\n      add\n      swap1\n      0x01\n      swap1\n      sub\n      swap1\n      dup2\n      tag_69\n      jumpi\n      swap1\n      pop\n      pop\n      swap1\n      jump\t// out\n    tag_71:\n      mload(0x40)\n      dup1\n      0x60\n      add\n      0x40\n      mstore\n      dup1\n      0x03\n      swap1\n      0x20\n      dup3\n      mul\n      dup1\n      calldatasize\n      dup4\n      calldatacopy\n      dup1\n      dup3\n      add\n      swap2\n      pop\n      pop\n      swap1\n      pop\n      pop\n      swap1\n      jump\t// out\n        /* \"#utility.yul\":7:146   */\n    tag_72:\n        /* \"#utility.yul\":99:105   */\n      0x00\n        /* \"#utility.yul\":133:138   */\n      dup2\n        /* \"#utility.yul\":127:139   */\n      mload\n        /* \"#utility.yul\":117:139   */\n      swap1\n      pop\n        /* \"#utility.yul\":7:146   */\n      swap2\n      swap1\n      pop\n      jump\t// out\n        /* \"#utility.yul\":152:361   */\n    tag_73:\n        /* \"#utility.yul\":276:287   */\n      0x00\n        /* \"#utility.yul\":310:316   */\n      dup3\n        /* \"#utility.yul\":305:308   */\n      dup3\n        /* \"#utility.yul\":298:317   */\n      mstore\n        /* \"#utility.yul\":350:354   */\n      0x20\n        /* \"#utility.yul\":345:348   */\n      dup3\n        /* \"#utility.yul\":341:355   */\n      add\n        /* \"#utility.yul\":326:355   */\n      swap1\n      pop\n        /* \"#utility.yul\":152:361   */\n      swap3\n      swap2\n      pop\n      pop\n      jump\t// out\n        /* \"#utility.yul\":367:524   */\n    tag_74:\n        /* \"#utility.yul\":459:463   */\n      0x00\n        /* \"#utility.yul\":482:485   */\n      dup2\n        /* \"#utility.yul\":474:485   */\n      swap1\n      pop\n        /* \"#utility.yul\":512:516   */\n      0x20\n        /* \"#utility.yul\":507:510   */\n      dup3\n        /* \"#utility.yul\":503:517   */\n      add\n        /* \"#utility.yul\":495:517   */\n      swap1\n      pop\n        /* \"#utility.yul\":367:524   */\n      swap2\n      swap1\n      pop\n      jump\t// out\n        /* \"#utility.yul\":530:644   */\n    tag_75:\n        /* \"#utility.yul\":597:603   */\n      0x00\n        /* \"#utility.yul\":631:636   */\n      dup2\n        /* \"#utility.yul\":625:637   */\n      mload\n        /* \"#utility.yul\":615:637   */\n      swap1\n      pop\n        /* \"#utility.yul\":530:644   */\n      swap2\n      swap1\n      pop\n      jump\t// out\n        /* \"#utility.yul\":650:824   */\n    tag_76:\n        /* \"#utility.yul\":739:750   */\n      0x00\n        /* \"#utility.yul\":773:779   */\n      dup3\n        /* \"#utility.yul\":768:771   */\n      dup3\n        /* \"#utility.yul\":761:780   */\n      mstore\n        /* \"#utility.yul\":813:817   */\n      0x20\n        /* \"#utility.yul\":808:811   */\n      dup3\n        /* \"#utility.yul\":804:818   */\n      add\n        /* \"#utility.yul\":789:818   */\n      swap1\n      pop\n        /* \"#utility.yul\":650:824   */\n      swap3\n      swap2\n      pop\n      pop\n      jump\t// out\n        /* \"#utility.yul\":830:962   */\n    tag_77:\n        /* \"#utility.yul\":897:901   */\n      0x00\n        /* \"#utility.yul\":920:923   */\n      dup2\n        /* \"#utility.yul\":912:923   */\n      swap1\n      pop\n        /* \"#utility.yul\":950:954   */\n      0x20\n        /* \"#utility.yul\":945:948   */\n      dup3\n        /* \"#utility.yul\":941:955   */\n      add\n        /* \"#utility.yul\":933:955   */\n      swap1\n      pop\n        /* \"#utility.yul\":830:962   */\n      swap2\n      swap1\n      pop\n      jump\t// out\n        /* \"#utility.yul\":968:1045   */\n    tag_78:\n        /* \"#utility.yul\":1005:1012   */\n      0x00\n        /* \"#utility.yul\":1034:1039   */\n      dup2\n        /* \"#utility.yul\":1023:1039   */\n      swap1\n      pop\n        /* \"#utility.yul\":968:1045   */\n      swap2\n      swap1\n      pop\n      jump\t// out\n        /* \"#utility.yul\":1051:1159   */\n    tag_79:\n        /* \"#utility.yul\":1128:1152   */\n      tag_95\n        /* \"#utility.yul\":1146:1151   */\n      dup2\n        /* \"#utility.yul\":1128:1152   */\n      tag_78\n      jump\t// in\n    tag_95:\n        /* \"#utility.yul\":1123:1126   */\n      dup3\n        /* \"#utility.yul\":1116:1153   */\n      mstore\n        /* \"#utility.yul\":1051:1159   */\n      pop\n      pop\n      jump\t// out\n        /* \"#utility.yul\":1165:1344   */\n    tag_80:\n        /* \"#utility.yul\":1234:1244   */\n      0x00\n        /* \"#utility.yul\":1255:1301   */\n      tag_97\n        /* \"#utility.yul\":1297:1300   */\n      dup4\n        /* \"#utility.yul\":1289:1295   */\n      dup4\n        /* \"#utility.yul\":1255:1301   */\n      tag_79\n      jump\t// in\n    tag_97:\n        /* \"#utility.yul\":1333:1337   */\n      0x20\n        /* \"#utility.yul\":1328:1331   */\n      dup4\n        /* \"#utility.yul\":1324:1338   */\n      add\n        /* \"#utility.yul\":1310:1338   */\n      swap1\n      pop\n        /* \"#utility.yul\":1165:1344   */\n      swap3\n      swap2\n      pop\n      pop\n      jump\t// out\n        /* \"#utility.yul\":1350:1463   */\n    tag_81:\n        /* \"#utility.yul\":1420:1424   */\n      0x00\n        /* \"#utility.yul\":1452:1456   */\n      0x20\n        /* \"#utility.yul\":1447:1450   */\n      dup3\n        /* \"#utility.yul\":1443:1457   */\n      add\n        /* \"#utility.yul\":1435:1457   */\n      swap1\n      pop\n        /* \"#utility.yul\":1350:1463   */\n      swap2\n      swap1\n      pop\n      jump\t// out\n        /* \"#utility.yul\":1499:2211   */\n    tag_82:\n        /* \"#utility.yul\":1608:1611   */\n      0x00\n        /* \"#utility.yul\":1637:1691   */\n      tag_100\n        /* \"#utility.yul\":1685:1690   */\n      dup3\n        /* \"#utility.yul\":1637:1691   */\n      tag_75\n      jump\t// in\n    tag_100:\n        /* \"#utility.yul\":1707:1783   */\n      tag_101\n        /* \"#utility.yul\":1776:1782   */\n      dup2\n        /* \"#utility.yul\":1771:1774   */\n      dup6\n        /* \"#utility.yul\":1707:1783   */\n      tag_76\n      jump\t// in\n    tag_101:\n        /* \"#utility.yul\":1700:1783   */\n      swap4\n      pop\n        /* \"#utility.yul\":1807:1863   */\n      tag_102\n        /* \"#utility.yul\":1857:1862   */\n      dup4\n        /* \"#utility.yul\":1807:1863   */\n      tag_77\n      jump\t// in\n    tag_102:\n        /* \"#utility.yul\":1886:1893   */\n      dup1\n        /* \"#utility.yul\":1917:1918   */\n      0x00\n        /* \"#utility.yul\":1902:2186   */\n    tag_103:\n        /* \"#utility.yul\":1927:1933   */\n      dup4\n        /* \"#utility.yul\":1924:1925   */\n      dup2\n        /* \"#utility.yul\":1921:1934   */\n      lt\n        /* \"#utility.yul\":1902:2186   */\n      iszero\n      tag_105\n      jumpi\n        /* \"#utility.yul\":2003:2009   */\n      dup2\n        /* \"#utility.yul\":1997:2010   */\n      mload\n        /* \"#utility.yul\":2030:2093   */\n      tag_106\n        /* \"#utility.yul\":2089:2092   */\n      dup9\n        /* \"#utility.yul\":2074:2087   */\n      dup3\n        /* \"#utility.yul\":2030:2093   */\n      tag_80\n      jump\t// in\n    tag_106:\n        /* \"#utility.yul\":2023:2093   */\n      swap8\n      pop\n        /* \"#utility.yul\":2116:2176   */\n      tag_107\n        /* \"#utility.yul\":2169:2175   */\n      dup4\n        /* \"#utility.yul\":2116:2176   */\n      tag_81\n      jump\t// in\n    tag_107:\n        /* \"#utility.yul\":2106:2176   */\n      swap3\n      pop\n        /* \"#utility.yul\":1962:2186   */\n      pop\n        /* \"#utility.yul\":1949:1950   */\n      0x01\n        /* \"#utility.yul\":1946:1947   */\n      dup2\n        /* \"#utility.yul\":1942:1951   */\n      add\n        /* \"#utility.yul\":1937:1951   */\n      swap1\n      pop\n        /* \"#utility.yul\":1902:2186   */\n      jump(tag_103)\n    tag_105:\n        /* \"#utility.yul\":1906:1920   */\n      pop\n        /* \"#utility.yul\":2202:2205   */\n      dup6\n        /* \"#utility.yul\":2195:2205   */\n      swap4\n      pop\n        /* \"#utility.yul\":1613:2211   */\n      pop\n      pop\n      pop\n        /* \"#utility.yul\":1499:2211   */\n      swap3\n      swap2\n      pop\n      pop\n      jump\t// out\n        /* \"#utility.yul\":2217:2473   */\n    tag_83:\n        /* \"#utility.yul\":2336:2346   */\n      0x00\n        /* \"#utility.yul\":2371:2467   */\n      tag_109\n        /* \"#utility.yul\":2463:2466   */\n      dup4\n        /* \"#utility.yul\":2455:2461   */\n      dup4\n        /* \"#utility.yul\":2371:2467   */\n      tag_82\n      jump\t// in\n    tag_109:\n        /* \"#utility.yul\":2357:2467   */\n      swap1\n      pop\n        /* \"#utility.yul\":2217:2473   */\n      swap3\n      swap2\n      pop\n      pop\n      jump\t// out\n        /* \"#utility.yul\":2479:2617   */\n    tag_84:\n        /* \"#utility.yul\":2574:2578   */\n      0x00\n        /* \"#utility.yul\":2606:2610   */\n      0x20\n        /* \"#utility.yul\":2601:2604   */\n      dup3\n        /* \"#utility.yul\":2597:2611   */\n      add\n        /* \"#utility.yul\":2589:2611   */\n      swap1\n      pop\n        /* \"#utility.yul\":2479:2617   */\n      swap2\n      swap1\n      pop\n      jump\t// out\n        /* \"#utility.yul\":2657:3768   */\n    tag_85:\n        /* \"#utility.yul\":2826:2829   */\n      0x00\n        /* \"#utility.yul\":2855:2934   */\n      tag_112\n        /* \"#utility.yul\":2928:2933   */\n      dup3\n        /* \"#utility.yul\":2855:2934   */\n      tag_72\n      jump\t// in\n    tag_112:\n        /* \"#utility.yul\":2950:3061   */\n      tag_113\n        /* \"#utility.yul\":3054:3060   */\n      dup2\n        /* \"#utility.yul\":3049:3052   */\n      dup6\n        /* \"#utility.yul\":2950:3061   */\n      tag_73\n      jump\t// in\n    tag_113:\n        /* \"#utility.yul\":2943:3061   */\n      swap4\n      pop\n        /* \"#utility.yul\":3087:3090   */\n      dup4\n        /* \"#utility.yul\":3132:3136   */\n      0x20\n        /* \"#utility.yul\":3124:3130   */\n      dup3\n        /* \"#utility.yul\":3120:3137   */\n      mul\n        /* \"#utility.yul\":3115:3118   */\n      dup6\n        /* \"#utility.yul\":3111:3138   */\n      add\n        /* \"#utility.yul\":3162:3243   */\n      tag_114\n        /* \"#utility.yul\":3237:3242   */\n      dup6\n        /* \"#utility.yul\":3162:3243   */\n      tag_74\n      jump\t// in\n    tag_114:\n        /* \"#utility.yul\":3266:3273   */\n      dup1\n        /* \"#utility.yul\":3297:3298   */\n      0x00\n        /* \"#utility.yul\":3282:3723   */\n    tag_115:\n        /* \"#utility.yul\":3307:3313   */\n      dup6\n        /* \"#utility.yul\":3304:3305   */\n      dup2\n        /* \"#utility.yul\":3301:3314   */\n      lt\n        /* \"#utility.yul\":3282:3723   */\n      iszero\n      tag_117\n      jumpi\n        /* \"#utility.yul\":3378:3387   */\n      dup5\n        /* \"#utility.yul\":3372:3376   */\n      dup5\n        /* \"#utility.yul\":3368:3388   */\n      sub\n        /* \"#utility.yul\":3363:3366   */\n      dup10\n        /* \"#utility.yul\":3356:3389   */\n      mstore\n        /* \"#utility.yul\":3429:3435   */\n      dup2\n        /* \"#utility.yul\":3423:3436   */\n      mload\n        /* \"#utility.yul\":3457:3571   */\n      tag_118\n        /* \"#utility.yul\":3566:3570   */\n      dup6\n        /* \"#utility.yul\":3551:3564   */\n      dup3\n        /* \"#utility.yul\":3457:3571   */\n      tag_83\n      jump\t// in\n    tag_118:\n        /* \"#utility.yul\":3449:3571   */\n      swap5\n      pop\n        /* \"#utility.yul\":3594:3679   */\n      tag_119\n        /* \"#utility.yul\":3672:3678   */\n      dup4\n        /* \"#utility.yul\":3594:3679   */\n      tag_84\n      jump\t// in\n    tag_119:\n        /* \"#utility.yul\":3584:3679   */\n      swap3\n      pop\n        /* \"#utility.yul\":3708:3712   */\n      0x20\n        /* \"#utility.yul\":3703:3706   */\n      dup11\n        /* \"#utility.yul\":3699:3713   */\n      add\n        /* \"#utility.yul\":3692:3713   */\n      swap10\n      pop\n        /* \"#utility.yul\":3342:3723   */\n      pop\n        /* \"#utility.yul\":3329:3330   */\n      0x01\n        /* \"#utility.yul\":3326:3327   */\n      dup2\n        /* \"#utility.yul\":3322:3331   */\n      add\n        /* \"#utility.yul\":3317:3331   */\n      swap1\n      pop\n        /* \"#utility.yul\":3282:3723   */\n      jump(tag_115)\n    tag_117:\n        /* \"#utility.yul\":3286:3300   */\n      pop\n        /* \"#utility.yul\":3739:3743   */\n      dup3\n        /* \"#utility.yul\":3732:3743   */\n      swap8\n      pop\n        /* \"#utility.yul\":3759:3762   */\n      dup8\n        /* \"#utility.yul\":3752:3762   */\n      swap6\n      pop\n        /* \"#utility.yul\":2831:3768   */\n      pop\n      pop\n      pop\n      pop\n      pop\n        /* \"#utility.yul\":2657:3768   */\n      swap3\n      swap2\n      pop\n      pop\n      jump\t// out\n        /* \"#utility.yul\":3774:4247   */\n    tag_12:\n        /* \"#utility.yul\":3967:3971   */\n      0x00\n        /* \"#utility.yul\":4005:4007   */\n      0x20\n        /* \"#utility.yul\":3994:4003   */\n      dup3\n        /* \"#utility.yul\":3990:4008   */\n      add\n        /* \"#utility.yul\":3982:4008   */\n      swap1\n      pop\n        /* \"#utility.yul\":4054:4063   */\n      dup2\n        /* \"#utility.yul\":4048:4052   */\n      dup2\n        /* \"#utility.yul\":4044:4064   */\n      sub\n        /* \"#utility.yul\":4040:4041   */\n      0x00\n        /* \"#utility.yul\":4029:4038   */\n      dup4\n        /* \"#utility.yul\":4025:4042   */\n      add\n        /* \"#utility.yul\":4018:4065   */\n      mstore\n        /* \"#utility.yul\":4082:4240   */\n      tag_121\n        /* \"#utility.yul\":4235:4239   */\n      dup2\n        /* \"#utility.yul\":4226:4232   */\n      dup5\n        /* \"#utility.yul\":4082:4240   */\n      tag_85\n      jump\t// in\n    tag_121:\n        /* \"#utility.yul\":4074:4240   */\n      swap1\n      pop\n        /* \"#utility.yul\":3774:4247   */\n      swap3\n      swap2\n      pop\n      pop\n      jump\t// out\n        /* \"#utility.yul\":4253:4433   */\n    tag_20:\n        /* \"#utility.yul\":4301:4378   */\n      0x4e487b7100000000000000000000000000000000000000000000000000000000\n        /* \"#utility.yul\":4298:4299   */\n      0x00\n        /* \"#utility.yul\":4291:4379   */\n      mstore\n        /* \"#utility.yul\":4398:4402   */\n      0x32\n        /* \"#utility.yul\":4395:4396   */\n      0x04\n        /* \"#utility.yul\":4388:4403   */\n      mstore\n        /* \"#utility.yul\":4422:4426   */\n      0x24\n        /* \"#utility.yul\":4419:4420   */\n      0x00\n        /* \"#utility.yul\":4412:4427   */\n      revert\n        /* \"#utility.yul\":4439:4619   */\n    tag_33:\n        /* \"#utility.yul\":4487:4564   */\n      0x4e487b7100000000000000000000000000000000000000000000000000000000\n        /* \"#utility.yul\":4484:4485   */\n      0x00\n        /* \"#utility.yul\":4477:4565   */\n      mstore\n        /* \"#utility.yul\":4584:4588   */\n      0x41\n        /* \"#utility.yul\":4581:4582   */\n      0x04\n        /* \"#utility.yul\":4574:4589   */\n      mstore\n        /* \"#utility.yul\":4608:4612   */\n      0x24\n        /* \"#utility.yul\":4605:4606   */\n      0x00\n        /* \"#utility.yul\":4598:4613   */\n      revert\n\n    auxdata: 0xa26469706673582212204855a71bb7b4e62a899e5265b7e3bf78dd9ad82e1687c9cba8202d416bb08fb764736f6c63430008190033\n}\n",
				"bytecode": {
					"linkReferences": {},
					"object": "6080604052604051806040016040528060405180606001604052806001815260200160028152602001600381525081526020016040518060600160405280600481526020016005815260200160068152508152506004906002610063929190610075565b5034801561006f575f80fd5b50610175565b828054828255905f5260205f209081019282156100bd579160200282015b828111156100bc578251829060036100ac9291906100ce565b5091602001919060010190610093565b5b5090506100ca9190610119565b5090565b828054828255905f5260205f20908101928215610108579160200282015b828111156101075782518255916020019190600101906100ec565b5b509050610115919061013c565b5090565b5b80821115610138575f818161012f9190610157565b5060010161011a565b5090565b5b80821115610153575f815f90555060010161013d565b5090565b5080545f8255905f5260205f2090810190610172919061013c565b50565b6106c1806101825f395ff3fe608060405234801561000f575f80fd5b506004361061004a575f3560e01c8063063468901461004e57806382a8181b14610058578063835330a914610076578063f8a8fd6d14610080575b5f80fd5b61005661008a565b005b61006061014b565b60405161006d9190610611565b60405180910390f35b61007e610288565b005b6100886102c5565b005b5f6040518060400160405280604051806060016040528060018152602001600281526020016003815250815260200160405180606001604052806004815260200160058152602001600681525081525090506007815f600281106100f1576100f0610631565b5b60200201515f6003811061010857610107610631565b5b60200201818152505060088160016002811061012757610126610631565b5b602002015160016003811061013f5761013e610631565b5b60200201818152505050565b60605f600290505f600390505f5b828110156101ee575f8267ffffffffffffffff81111561017c5761017b61065e565b5b6040519080825280602002602001820160405280156101aa5781602001602082028036833780820191505090505b50908060018154018082558091505060019003905f5260205f20015f9091909190915090805190602001906101e092919061033e565b508080600101915050610159565b505f805480602002602001604051908101604052809291908181526020015f905b8282101561027d578382905f5260205f200180548060200260200160405190810160405280929190818152602001828054801561026957602002820191905f5260205f20905b815481526020019060010190808311610255575b50505050508152602001906001019061020f565b505050509250505090565b60015f6003811061029c5761029b610631565b5b016103e7908060018154018082558091505060019003905f5260205f20015f9091909190915055565b6102cd610389565b6102d56103b6565b5f60606102e06103e3565b5f805f6040518060400160405280604051806060016040528060018152602001600281526020016003815250815260200160405180606001604052806004815260200160058152602001600681525081525090505050505050505050565b828054828255905f5260205f20908101928215610378579160200282015b8281111561037757825182559160200191906001019061035c565b5b509050610385919061040a565b5090565b60405180606001604052806003905b6103a0610425565b8152602001906001900390816103985790505090565b60405180606001604052806003905b6103cd610447565b8152602001906001900390816103c55790505090565b60405180606001604052806003905b60608152602001906001900390816103f25790505090565b5b80821115610421575f815f90555060010161040b565b5090565b6040518060a00160405280600590602082028036833780820191505090505090565b60405180606001604052806003905b61045e610474565b8152602001906001900390816104565790505090565b6040518060600160405280600390602082028036833780820191505090505090565b5f81519050919050565b5f82825260208201905092915050565b5f819050602082019050919050565b5f81519050919050565b5f82825260208201905092915050565b5f819050602082019050919050565b5f819050919050565b6104fa816104e8565b82525050565b5f61050b83836104f1565b60208301905092915050565b5f602082019050919050565b5f61052d826104bf565b61053781856104c9565b9350610542836104d9565b805f5b838110156105725781516105598882610500565b975061056483610517565b925050600181019050610545565b5085935050505092915050565b5f61058a8383610523565b905092915050565b5f602082019050919050565b5f6105a882610496565b6105b281856104a0565b9350836020820285016105c4856104b0565b805f5b858110156105ff57848403895281516105e0858261057f565b94506105eb83610592565b925060208a019950506001810190506105c7565b50829750879550505050505092915050565b5f6020820190508181035f830152610629818461059e565b905092915050565b7f4e487b71000000000000000000000000000000000000000000000000000000005f52603260045260245ffd5b7f4e487b71000000000000000000000000000000000000000000000000000000005f52604160045260245ffdfea26469706673582212204855a71bb7b4e62a899e5265b7e3bf78dd9ad82e1687c9cba8202d416bb08fb764736f6c63430008190033",
					"opcodes": "PUSH1 0x80 PUSH1 0x40 MSTORE PUSH1 0x40 MLOAD DUP1 PUSH1 0x40 ADD PUSH1 0x40 MSTORE DUP1 PUSH1 0x40 MLOAD DUP1 PUSH1 0x60 ADD PUSH1 0x40 MSTORE DUP1 PUSH1 0x1 DUP2 MSTORE PUSH1 0x20 ADD PUSH1 0x2 DUP2 MSTORE PUSH1 0x20 ADD PUSH1 0x3 DUP2 MSTORE POP DUP2 MSTORE PUSH1 0x20 ADD PUSH1 0x40 MLOAD DUP1 PUSH1 0x60 ADD PUSH1 0x40 MSTORE DUP1 PUSH1 0x4 DUP2 MSTORE PUSH1 0x20 ADD PUSH1 0x5 DUP2 MSTORE PUSH1 0x20 ADD PUSH1 0x6 DUP2 MSTORE POP DUP2 MSTORE POP PUSH1 0x4 SWAP1 PUSH1 0x2 PUSH2 0x63 SWAP3 SWAP2 SWAP1 PUSH2 0x75 JUMP JUMPDEST POP CALLVALUE DUP1 ISZERO PUSH2 0x6F JUMPI PUSH0 DUP1 REVERT JUMPDEST POP PUSH2 0x175 JUMP JUMPDEST DUP3 DUP1 SLOAD DUP3 DUP3 SSTORE SWAP1 PUSH0 MSTORE PUSH1 0x20 PUSH0 KECCAK256 SWAP1 DUP2 ADD SWAP3 DUP3 ISZERO PUSH2 0xBD JUMPI SWAP2 PUSH1 0x20 MUL DUP3 ADD JUMPDEST DUP3 DUP2 GT ISZERO PUSH2 0xBC JUMPI DUP3 MLOAD DUP3 SWAP1 PUSH1 0x3 PUSH2 0xAC SWAP3 SWAP2 SWAP1 PUSH2 0xCE JUMP JUMPDEST POP SWAP2 PUSH1 0x20 ADD SWAP2 SWAP1 PUSH1 0x1 ADD SWAP1 PUSH2 0x93 JUMP JUMPDEST JUMPDEST POP SWAP1 POP PUSH2 0xCA SWAP2 SWAP1 PUSH2 0x119 JUMP JUMPDEST POP SWAP1 JUMP JUMPDEST DUP3 DUP1 SLOAD DUP3 DUP3 SSTORE SWAP1 PUSH0 MSTORE PUSH1 0x20 PUSH0 KECCAK256 SWAP1 DUP2 ADD SWAP3 DUP3 ISZERO PUSH2 0x108 JUMPI SWAP2 PUSH1 0x20 MUL DUP3 ADD JUMPDEST DUP3 DUP2 GT ISZERO PUSH2 0x107 JUMPI DUP3 MLOAD DUP3 SSTORE SWAP2 PUSH1 0x20 ADD SWAP2 SWAP1 PUSH1 0x1 ADD SWAP1 PUSH2 0xEC JUMP JUMPDEST JUMPDEST POP SWAP1 POP PUSH2 0x115 SWAP2 SWAP1 PUSH2 0x13C JUMP JUMPDEST POP SWAP1 JUMP JUMPDEST JUMPDEST DUP1 DUP3 GT ISZERO PUSH2 0x138 JUMPI PUSH0 DUP2 DUP2 PUSH2 0x12F SWAP2 SWAP1 PUSH2 0x157 JUMP JUMPDEST POP PUSH1 0x1 ADD PUSH2 0x11A JUMP JUMPDEST POP SWAP1 JUMP JUMPDEST JUMPDEST DUP1 DUP3 GT ISZERO PUSH2 0x153 JUMPI PUSH0 DUP2 PUSH0 SWAP1 SSTORE POP PUSH1 0x1 ADD PUSH2 0x13D JUMP JUMPDEST POP SWAP1 JUMP JUMPDEST POP DUP1 SLOAD PUSH0 DUP3 SSTORE SWAP1 PUSH0 MSTORE PUSH1 0x20 PUSH0 KECCAK256 SWAP1 DUP2 ADD SWAP1 PUSH2 0x172 SWAP2 SWAP1 PUSH2 0x13C JUMP JUMPDEST POP JUMP JUMPDEST PUSH2 0x6C1 DUP1 PUSH2 0x182 PUSH0 CODECOPY PUSH0 RETURN INVALID PUSH1 0x80 PUSH1 0x40 MSTORE CALLVALUE DUP1 ISZERO PUSH2 0xF JUMPI PUSH0 DUP1 REVERT JUMPDEST POP PUSH1 0x4 CALLDATASIZE LT PUSH2 0x4A JUMPI PUSH0 CALLDATALOAD PUSH1 0xE0 SHR DUP1 PUSH4 0x6346890 EQ PUSH2 0x4E JUMPI DUP1 PUSH4 0x82A8181B EQ PUSH2 0x58 JUMPI DUP1 PUSH4 0x835330A9 EQ PUSH2 0x76 JUMPI DUP1 PUSH4 0xF8A8FD6D EQ PUSH2 0x80 JUMPI JUMPDEST PUSH0 DUP1 REVERT JUMPDEST PUSH2 0x56 PUSH2 0x8A JUMP JUMPDEST STOP JUMPDEST PUSH2 0x60 PUSH2 0x14B JUMP JUMPDEST PUSH1 0x40 MLOAD PUSH2 0x6D SWAP2 SWAP1 PUSH2 0x611 JUMP JUMPDEST PUSH1 0x40 MLOAD DUP1 SWAP2 SUB SWAP1 RETURN JUMPDEST PUSH2 0x7E PUSH2 0x288 JUMP JUMPDEST STOP JUMPDEST PUSH2 0x88 PUSH2 0x2C5 JUMP JUMPDEST STOP JUMPDEST PUSH0 PUSH1 0x40 MLOAD DUP1 PUSH1 0x40 ADD PUSH1 0x40 MSTORE DUP1 PUSH1 0x40 MLOAD DUP1 PUSH1 0x60 ADD PUSH1 0x40 MSTORE DUP1 PUSH1 0x1 DUP2 MSTORE PUSH1 0x20 ADD PUSH1 0x2 DUP2 MSTORE PUSH1 0x20 ADD PUSH1 0x3 DUP2 MSTORE POP DUP2 MSTORE PUSH1 0x20 ADD PUSH1 0x40 MLOAD DUP1 PUSH1 0x60 ADD PUSH1 0x40 MSTORE DUP1 PUSH1 0x4 DUP2 MSTORE PUSH1 0x20 ADD PUSH1 0x5 DUP2 MSTORE PUSH1 0x20 ADD PUSH1 0x6 DUP2 MSTORE POP DUP2 MSTORE POP SWAP1 POP PUSH1 0x7 DUP2 PUSH0 PUSH1 0x2 DUP2 LT PUSH2 0xF1 JUMPI PUSH2 0xF0 PUSH2 0x631 JUMP JUMPDEST JUMPDEST PUSH1 0x20 MUL ADD MLOAD PUSH0 PUSH1 0x3 DUP2 LT PUSH2 0x108 JUMPI PUSH2 0x107 PUSH2 0x631 JUMP JUMPDEST JUMPDEST PUSH1 0x20 MUL ADD DUP2 DUP2 MSTORE POP POP PUSH1 0x8 DUP2 PUSH1 0x1 PUSH1 0x2 DUP2 LT PUSH2 0x127 JUMPI PUSH2 0x126 PUSH2 0x631 JUMP JUMPDEST JUMPDEST PUSH1 0x20 MUL ADD MLOAD PUSH1 0x1 PUSH1 0x3 DUP2 LT PUSH2 0x13F JUMPI PUSH2 0x13E PUSH2 0x631 JUMP JUMPDEST JUMPDEST PUSH1 0x20 MUL ADD DUP2 DUP2 MSTORE POP POP POP JUMP JUMPDEST PUSH1 0x60 PUSH0 PUSH1 0x2 SWAP1 POP PUSH0 PUSH1 0x3 SWAP1 POP PUSH0 JUMPDEST DUP3 DUP2 LT ISZERO PUSH2 0x1EE JUMPI PUSH0 DUP3 PUSH8 0xFFFFFFFFFFFFFFFF DUP2 GT ISZERO PUSH2 0x17C JUMPI PUSH2 0x17B PUSH2 0x65E JUMP JUMPDEST JUMPDEST PUSH1 0x40 MLOAD SWAP1 DUP1 DUP3 MSTORE DUP1 PUSH1 0x20 MUL PUSH1 0x20 ADD DUP3 ADD PUSH1 0x40 MSTORE DUP1 ISZERO PUSH2 0x1AA JUMPI DUP2 PUSH1 0x20 ADD PUSH1 0x20 DUP3 MUL DUP1 CALLDATASIZE DUP4 CALLDATACOPY DUP1 DUP3 ADD SWAP2 POP POP SWAP1 POP JUMPDEST POP SWAP1 DUP1 PUSH1 0x1 DUP2 SLOAD ADD DUP1 DUP3 SSTORE DUP1 SWAP2 POP POP PUSH1 0x1 SWAP1 SUB SWAP1 PUSH0 MSTORE PUSH1 0x20 PUSH0 KECCAK256 ADD PUSH0 SWAP1 SWAP2 SWAP1 SWAP2 SWAP1 SWAP2 POP SWAP1 DUP1 MLOAD SWAP1 PUSH1 0x20 ADD SWAP1 PUSH2 0x1E0 SWAP3 SWAP2 SWAP1 PUSH2 0x33E JUMP JUMPDEST POP DUP1 DUP1 PUSH1 0x1 ADD SWAP2 POP POP PUSH2 0x159 JUMP JUMPDEST POP PUSH0 DUP1 SLOAD DUP1 PUSH1 0x20 MUL PUSH1 0x20 ADD PUSH1 0x40 MLOAD SWAP1 DUP2 ADD PUSH1 0x40 MSTORE DUP1 SWAP3 SWAP2 SWAP1 DUP2 DUP2 MSTORE PUSH1 0x20 ADD PUSH0 SWAP1 JUMPDEST DUP3 DUP3 LT ISZERO PUSH2 0x27D JUMPI DUP4 DUP3 SWAP1 PUSH0 MSTORE PUSH1 0x20 PUSH0 KECCAK256 ADD DUP1 SLOAD DUP1 PUSH1 0x20 MUL PUSH1 0x20 ADD PUSH1 0x40 MLOAD SWAP1 DUP2 ADD PUSH1 0x40 MSTORE DUP1 SWAP3 SWAP2 SWAP1 DUP2 DUP2 MSTORE PUSH1 0x20 ADD DUP3 DUP1 SLOAD DUP1 ISZERO PUSH2 0x269 JUMPI PUSH1 0x20 MUL DUP3 ADD SWAP2 SWAP1 PUSH0 MSTORE PUSH1 0x20 PUSH0 KECCAK256 SWAP1 JUMPDEST DUP2 SLOAD DUP2 MSTORE PUSH1 0x20 ADD SWAP1 PUSH1 0x1 ADD SWAP1 DUP1 DUP4 GT PUSH2 0x255 JUMPI JUMPDEST POP POP POP POP POP DUP2 MSTORE PUSH1 0x20 ADD SWAP1 PUSH1 0x1 ADD SWAP1 PUSH2 0x20F JUMP JUMPDEST POP POP POP POP SWAP3 POP POP POP SWAP1 JUMP JUMPDEST PUSH1 0x1 PUSH0 PUSH1 0x3 DUP2 LT PUSH2 0x29C JUMPI PUSH2 0x29B PUSH2 0x631 JUMP JUMPDEST JUMPDEST ADD PUSH2 0x3E7 SWAP1 DUP1 PUSH1 0x1 DUP2 SLOAD ADD DUP1 DUP3 SSTORE DUP1 SWAP2 POP POP PUSH1 0x1 SWAP1 SUB SWAP1 PUSH0 MSTORE PUSH1 0x20 PUSH0 KECCAK256 ADD PUSH0 SWAP1 SWAP2 SWAP1 SWAP2 SWAP1 SWAP2 POP SSTORE JUMP JUMPDEST PUSH2 0x2CD PUSH2 0x389 JUMP JUMPDEST PUSH2 0x2D5 PUSH2 0x3B6 JUMP JUMPDEST PUSH0 PUSH1 0x60 PUSH2 0x2E0 PUSH2 0x3E3 JUMP JUMPDEST PUSH0 DUP1 PUSH0 PUSH1 0x40 MLOAD DUP1 PUSH1 0x40 ADD PUSH1 0x40 MSTORE DUP1 PUSH1 0x40 MLOAD DUP1 PUSH1 0x60 ADD PUSH1 0x40 MSTORE DUP1 PUSH1 0x1 DUP2 MSTORE PUSH1 0x20 ADD PUSH1 0x2 DUP2 MSTORE PUSH1 0x20 ADD PUSH1 0x3 DUP2 MSTORE POP DUP2 MSTORE PUSH1 0x20 ADD PUSH1 0x40 MLOAD DUP1 PUSH1 0x60 ADD PUSH1 0x40 MSTORE DUP1 PUSH1 0x4 DUP2 MSTORE PUSH1 0x20 ADD PUSH1 0x5 DUP2 MSTORE PUSH1 0x20 ADD PUSH1 0x6 DUP2 MSTORE POP DUP2 MSTORE POP SWAP1 POP POP POP POP POP POP POP POP POP JUMP JUMPDEST DUP3 DUP1 SLOAD DUP3 DUP3 SSTORE SWAP1 PUSH0 MSTORE PUSH1 0x20 PUSH0 KECCAK256 SWAP1 DUP2 ADD SWAP3 DUP3 ISZERO PUSH2 0x378 JUMPI SWAP2 PUSH1 0x20 MUL DUP3 ADD JUMPDEST DUP3 DUP2 GT ISZERO PUSH2 0x377 JUMPI DUP3 MLOAD DUP3 SSTORE SWAP2 PUSH1 0x20 ADD SWAP2 SWAP1 PUSH1 0x1 ADD SWAP1 PUSH2 0x35C JUMP JUMPDEST JUMPDEST POP SWAP1 POP PUSH2 0x385 SWAP2 SWAP1 PUSH2 0x40A JUMP JUMPDEST POP SWAP1 JUMP JUMPDEST PUSH1 0x40 MLOAD DUP1 PUSH1 0x60 ADD PUSH1 0x40 MSTORE DUP1 PUSH1 0x3 SWAP1 JUMPDEST PUSH2 0x3A0 PUSH2 0x425 JUMP JUMPDEST DUP2 MSTORE PUSH1 0x20 ADD SWAP1 PUSH1 0x1 SWAP1 SUB SWAP1 DUP2 PUSH2 0x398 JUMPI SWAP1 POP POP SWAP1 JUMP JUMPDEST PUSH1 0x40 MLOAD DUP1 PUSH1 0x60 ADD PUSH1 0x40 MSTORE DUP1 PUSH1 0x3 SWAP1 JUMPDEST PUSH2 0x3CD PUSH2 0x447 JUMP JUMPDEST DUP2 MSTORE PUSH1 0x20 ADD SWAP1 PUSH1 0x1 SWAP1 SUB SWAP1 DUP2 PUSH2 0x3C5 JUMPI SWAP1 POP POP SWAP1 JUMP JUMPDEST PUSH1 0x40 MLOAD DUP1 PUSH1 0x60 ADD PUSH1 0x40 MSTORE DUP1 PUSH1 0x3 SWAP1 JUMPDEST PUSH1 0x60 DUP2 MSTORE PUSH1 0x20 ADD SWAP1 PUSH1 0x1 SWAP1 SUB SWAP1 DUP2 PUSH2 0x3F2 JUMPI SWAP1 POP POP SWAP1 JUMP JUMPDEST JUMPDEST DUP1 DUP3 GT ISZERO PUSH2 0x421 JUMPI PUSH0 DUP2 PUSH0 SWAP1 SSTORE POP PUSH1 0x1 ADD PUSH2 0x40B JUMP JUMPDEST POP SWAP1 JUMP JUMPDEST PUSH1 0x40 MLOAD DUP1 PUSH1 0xA0 ADD PUSH1 0x40 MSTORE DUP1 PUSH1 0x5 SWAP1 PUSH1 0x20 DUP3 MUL DUP1 CALLDATASIZE DUP4 CALLDATACOPY DUP1 DUP3 ADD SWAP2 POP POP SWAP1 POP POP SWAP1 JUMP JUMPDEST PUSH1 0x40 MLOAD DUP1 PUSH1 0x60 ADD PUSH1 0x40 MSTORE DUP1 PUSH1 0x3 SWAP1 JUMPDEST PUSH2 0x45E PUSH2 0x474 JUMP JUMPDEST DUP2 MSTORE PUSH1 0x20 ADD SWAP1 PUSH1 0x1 SWAP1 SUB SWAP1 DUP2 PUSH2 0x456 JUMPI SWAP1 POP POP SWAP1 JUMP JUMPDEST PUSH1 0x40 MLOAD DUP1 PUSH1 0x60 ADD PUSH1 0x40 MSTORE DUP1 PUSH1 0x3 SWAP1 PUSH1 0x20 DUP3 MUL DUP1 CALLDATASIZE DUP4 CALLDATACOPY DUP1 DUP3 ADD SWAP2 POP POP SWAP1 POP POP SWAP1 JUMP JUMPDEST PUSH0 DUP2 MLOAD SWAP1 POP SWAP2 SWAP1 POP JUMP JUMPDEST PUSH0 DUP3 DUP3 MSTORE PUSH1 0x20 DUP3 ADD SWAP1 POP SWAP3 SWAP2 POP POP JUMP JUMPDEST PUSH0 DUP2 SWAP1 POP PUSH1 0x20 DUP3 ADD SWAP1 POP SWAP2 SWAP1 POP JUMP JUMPDEST PUSH0 DUP2 MLOAD SWAP1 POP SWAP2 SWAP1 POP JUMP JUMPDEST PUSH0 DUP3 DUP3 MSTORE PUSH1 0x20 DUP3 ADD SWAP1 POP SWAP3 SWAP2 POP POP JUMP JUMPDEST PUSH0 DUP2 SWAP1 POP PUSH1 0x20 DUP3 ADD SWAP1 POP SWAP2 SWAP1 POP JUMP JUMPDEST PUSH0 DUP2 SWAP1 POP SWAP2 SWAP1 POP JUMP JUMPDEST PUSH2 0x4FA DUP2 PUSH2 0x4E8 JUMP JUMPDEST DUP3 MSTORE POP POP JUMP JUMPDEST PUSH0 PUSH2 0x50B DUP4 DUP4 PUSH2 0x4F1 JUMP JUMPDEST PUSH1 0x20 DUP4 ADD SWAP1 POP SWAP3 SWAP2 POP POP JUMP JUMPDEST PUSH0 PUSH1 0x20 DUP3 ADD SWAP1 POP SWAP2 SWAP1 POP JUMP JUMPDEST PUSH0 PUSH2 0x52D DUP3 PUSH2 0x4BF JUMP JUMPDEST PUSH2 0x537 DUP2 DUP6 PUSH2 0x4C9 JUMP JUMPDEST SWAP4 POP PUSH2 0x542 DUP4 PUSH2 0x4D9 JUMP JUMPDEST DUP1 PUSH0 JUMPDEST DUP4 DUP2 LT ISZERO PUSH2 0x572 JUMPI DUP2 MLOAD PUSH2 0x559 DUP9 DUP3 PUSH2 0x500 JUMP JUMPDEST SWAP8 POP PUSH2 0x564 DUP4 PUSH2 0x517 JUMP JUMPDEST SWAP3 POP POP PUSH1 0x1 DUP2 ADD SWAP1 POP PUSH2 0x545 JUMP JUMPDEST POP DUP6 SWAP4 POP POP POP POP SWAP3 SWAP2 POP POP JUMP JUMPDEST PUSH0 PUSH2 0x58A DUP4 DUP4 PUSH2 0x523 JUMP JUMPDEST SWAP1 POP SWAP3 SWAP2 POP POP JUMP JUMPDEST PUSH0 PUSH1 0x20 DUP3 ADD SWAP1 POP SWAP2 SWAP1 POP JUMP JUMPDEST PUSH0 PUSH2 0x5A8 DUP3 PUSH2 0x496 JUMP JUMPDEST PUSH2 0x5B2 DUP2 DUP6 PUSH2 0x4A0 JUMP JUMPDEST SWAP4 POP DUP4 PUSH1 0x20 DUP3 MUL DUP6 ADD PUSH2 0x5C4 DUP6 PUSH2 0x4B0 JUMP JUMPDEST DUP1 PUSH0 JUMPDEST DUP6 DUP2 LT ISZERO PUSH2 0x5FF JUMPI DUP5 DUP5 SUB DUP10 MSTORE DUP2 MLOAD PUSH2 0x5E0 DUP6 DUP3 PUSH2 0x57F JUMP JUMPDEST SWAP5 POP PUSH2 0x5EB DUP4 PUSH2 0x592 JUMP JUMPDEST SWAP3 POP PUSH1 0x20 DUP11 ADD SWAP10 POP POP PUSH1 0x1 DUP2 ADD SWAP1 POP PUSH2 0x5C7 JUMP JUMPDEST POP DUP3 SWAP8 POP DUP8 SWAP6 POP POP POP POP POP POP SWAP3 SWAP2 POP POP JUMP JUMPDEST PUSH0 PUSH1 0x20 DUP3 ADD SWAP1 POP DUP2 DUP2 SUB PUSH0 DUP4 ADD MSTORE PUSH2 0x629 DUP2 DUP5 PUSH2 0x59E JUMP JUMPDEST SWAP1 POP SWAP3 SWAP2 POP POP JUMP JUMPDEST PUSH32 0x4E487B7100000000000000000000000000000000000000000000000000000000 PUSH0 MSTORE PUSH1 0x32 PUSH1 0x4 MSTORE PUSH1 0x24 PUSH0 REVERT JUMPDEST PUSH32 0x4E487B7100000000000000000000000000000000000000000000000000000000 PUSH0 MSTORE PUSH1 0x41 PUSH1 0x4 MSTORE PUSH1 0x24 PUSH0 REVERT INVALID LOG2 PUSH5 0x6970667358 0x22 SLT KECCAK256 BASEFEE SSTORE 0xA7 SHL 0xB7 0xB4 0xE6 0x2A DUP10 SWAP15 MSTORE PUSH6 0xB7E3BF78DD9A 0xD8 0x2E AND DUP8 0xC9 0xCB 0xA8 KECCAK256 0x2D COINBASE PUSH12 0xB08FB764736F6C6343000819 STOP CALLER "
				},
				"gasEstimates": {
					"creation": {
						"codeDepositCost": "345800",
						"executionCost": "infinite",
						"totalCost": "infinite"
					},
					"external": {
						"initArray()": "infinite",
						"test()": "infinite",
						"validPush()": "46613",
						"visitMemoryArr()": "521"
					}
				},
				"methodIdentifiers": {
					"initArray()": "82a8181b",
					"test()": "f8a8fd6d",
					"validPush()": "835330a9",
					"visitMemoryArr()": "06346890"
				}
			},
			"storageLayout": {
				"storage": [
					{
						"astId": 92,
						"contract": "contracts/MulitArray.sol:MultiArray",
						"label": "storageArr",
						"offset": 0,
						"slot": "0",
						"type": "t_array(t_array(t_uint256)dyn_storage)dyn_storage"
					},
					{
						"astId": 137,
						"contract": "contracts/MulitArray.sol:MultiArray",
						"label": "storageArr2",
						"offset": 0,
						"slot": "1",
						"type": "t_array(t_array(t_uint256)dyn_storage)3_storage"
					},
					{
						"astId": 167,
						"contract": "contracts/MulitArray.sol:MultiArray",
						"label": "storageArr3",
						"offset": 0,
						"slot": "4",
						"type": "t_array(t_array(t_uint256)dyn_storage)dyn_storage"
					}
				],
				"types": {
					"t_array(t_array(t_uint256)dyn_storage)3_storage": {
						"base": "t_array(t_uint256)dyn_storage",
						"encoding": "inplace",
						"label": "uint256[][3]",
						"numberOfBytes": "96"
					},
					"t_array(t_array(t_uint256)dyn_storage)dyn_storage": {
						"base": "t_array(t_uint256)dyn_storage",
						"encoding": "dynamic_array",
						"label": "uint256[][]",
						"numberOfBytes": "32"
					},
					"t_array(t_uint256)dyn_storage": {
						"base": "t_uint256",
						"encoding": "dynamic_array",
						"label": "uint256[]",
						"numberOfBytes": "32"
					},
					"t_uint256": {
						"encoding": "inplace",
						"label": "uint256",
						"numberOfBytes": "32"
					}
				}
			},
			"userdoc": {
				"kind": "user",
				"methods": {},
				"version": 1
			}
		}
	}
}