{
	"data": {
		"bytecode": {
			"linkReferences": {},
			"object": "6080604052348015600e575f80fd5b50607e80601a5f395ff3fe6080604052348015600e575f80fd5b50600436106030575f3560e01c80632c38f1fb1460345780636fda1a1114603c575b5f80fd5b603a6044565b005b60426046565b005b565b56fea2646970667358221220342538240e38ceb6f8978c062ce9fb01adf71807147ced684f3dd96cf5ad93e564736f6c63430008190033",
			"opcodes": "PUSH1 0x80 PUSH1 0x40 MSTORE CALLVALUE DUP1 ISZERO PUSH1 0xE JUMPI PUSH0 DUP1 REVERT JUMPDEST POP PUSH1 0x7E DUP1 PUSH1 0x1A PUSH0 CODECOPY PUSH0 RETURN INVALID PUSH1 0x80 PUSH1 0x40 MSTORE CALLVALUE DUP1 ISZERO PUSH1 0xE JUMPI PUSH0 DUP1 REVERT JUMPDEST POP PUSH1 0x4 CALLDATASIZE LT PUSH1 0x30 JUMPI PUSH0 CALLDATALOAD PUSH1 0xE0 SHR DUP1 PUSH4 0x2C38F1FB EQ PUSH1 0x34 JUMPI DUP1 PUSH4 0x6FDA1A11 EQ PUSH1 0x3C JUMPI JUMPDEST PUSH0 DUP1 REVERT JUMPDEST PUSH1 0x3A PUSH1 0x44 JUMP JUMPDEST STOP JUMPDEST PUSH1 0x42 PUSH1 0x46 JUMP JUMPDEST STOP JUMPDEST JUMP JUMPDEST JUMP INVALID LOG2 PUSH5 0x6970667358 0x22 SLT KECCAK256 CALLVALUE 0x25 CODESIZE 0x24 0xE CODESIZE 0xCE 0xB6 0xF8 SWAP8 DUP13 MOD 0x2C 0xE9 0xFB ADD 0xAD 0xF7 XOR SMOD EQ PUSH29 0xED684F3DD96CF5AD93E564736F6C634300081900330000000000000000 "
		},
		"gasEstimates": {
			"creation": {
				"codeDepositCost": "25200",
				"executionCost": "73",
				"totalCost": "25273"
			},
			"external": {
				"funExternal()": "121",
				"funPublic()": "143"
			},
			"internal": {
				"childFun()": "infinite"
			}
		},
		"methodIdentifiers": {
			"funExternal()": "2c38f1fb",
			"funPublic()": "6fda1a11"
		}
	},
	"abi": [
		{
			"inputs": [],
			"name": "funExternal",
			"outputs": [],
			"stateMutability": "nonpayable",
			"type": "function"
		},
		{
			"inputs": [],
			"name": "funPublic",
			"outputs": [],
			"stateMutability": "nonpayable",
			"type": "function"
		}
	]
}