{
	"data": {
		"bytecode": {
			"linkReferences": {},
			"object": "608060405260055f553480156012575f80fd5b50606a80601e5f395ff3fe6080604052348015600e575f80fd5b50600436106026575f3560e01c80635d1149ff14602a575b5f80fd5b60306032565b005b56fea264697066735822122010f25b07c05627386575e651017853cdc1a6a4329edca754cc1d03d6dff81ae364736f6c63430008190033",
			"opcodes": "PUSH1 0x80 PUSH1 0x40 MSTORE PUSH1 0x5 PUSH0 SSTORE CALLVALUE DUP1 ISZERO PUSH1 0x12 JUMPI PUSH0 DUP1 REVERT JUMPDEST POP PUSH1 0x6A DUP1 PUSH1 0x1E PUSH0 CODECOPY PUSH0 RETURN INVALID PUSH1 0x80 PUSH1 0x40 MSTORE CALLVALUE DUP1 ISZERO PUSH1 0xE JUMPI PUSH0 DUP1 REVERT JUMPDEST POP PUSH1 0x4 CALLDATASIZE LT PUSH1 0x26 JUMPI PUSH0 CALLDATALOAD PUSH1 0xE0 SHR DUP1 PUSH4 0x5D1149FF EQ PUSH1 0x2A JUMPI JUMPDEST PUSH0 DUP1 REVERT JUMPDEST PUSH1 0x30 PUSH1 0x32 JUMP JUMPDEST STOP JUMPDEST JUMP INVALID LOG2 PUSH5 0x6970667358 0x22 SLT KECCAK256 LT CALLCODE JUMPDEST SMOD 0xC0 JUMP 0x27 CODESIZE PUSH6 0x75E651017853 0xCD 0xC1 0xA6 LOG4 ORIGIN SWAP15 0xDC 0xA7 SLOAD 0xCC SAR SUB 0xD6 0xDF 0xF8 BYTE 0xE3 PUSH5 0x736F6C6343 STOP ADDMOD NOT STOP CALLER "
		},
		"gasEstimates": {
			"creation": {
				"codeDepositCost": "21200",
				"executionCost": "22178",
				"totalCost": "43378"
			},
			"external": {
				"testConstant()": "121"
			}
		},
		"methodIdentifiers": {
			"testConstant()": "5d1149ff"
		}
	},
	"abi": [
		{
			"inputs": [],
			"name": "testConstant",
			"outputs": [],
			"stateMutability": "nonpayable",
			"type": "function"
		}
	]
}