{
	"data": {
		"bytecode": {
			"linkReferences": {},
			"object": "6080604052348015600e575f80fd5b5061028c8061001c5f395ff3fe608060405234801561000f575f80fd5b5060043610610034575f3560e01c806303bb43ff146100385780633b8226fb14610042575b5f80fd5b610040610072565b005b61005c6004803603810190610057919061012e565b6100d0565b60405161006991906101a5565b60405180910390f35b5f600a90505f600590505f8290505f601490505f61009085836100d0565b90507f7d403d0632ab94faad3c3385c5c1c083d17d457521c9c0e26a523e45798dd14f816040516100c191906101cd565b60405180910390a15050505050565b5f81836100dd9190610213565b905092915050565b5f80fd5b5f6fffffffffffffffffffffffffffffffff82169050919050565b61010d816100e9565b8114610117575f80fd5b50565b5f8135905061012881610104565b92915050565b5f8060408385031215610144576101436100e5565b5b5f6101518582860161011a565b92505060206101628582860161011a565b9150509250929050565b5f819050919050565b5f61018f61018a610185846100e9565b61016c565b6100e9565b9050919050565b61019f81610175565b82525050565b5f6020820190506101b85f830184610196565b92915050565b6101c7816100e9565b82525050565b5f6020820190506101e05f8301846101be565b92915050565b7f4e487b71000000000000000000000000000000000000000000000000000000005f52601160045260245ffd5b5f61021d826100e9565b9150610228836100e9565b925082820190506fffffffffffffffffffffffffffffffff8111156102505761024f6101e6565b5b9291505056fea2646970667358221220d7d6c79413af3406763ad89e97ca611c079ba98f208499916bfcba8d030d7f5964736f6c63430008190033",
			"opcodes": "PUSH1 0x80 PUSH1 0x40 MSTORE CALLVALUE DUP1 ISZERO PUSH1 0xE JUMPI PUSH0 DUP1 REVERT JUMPDEST POP PUSH2 0x28C DUP1 PUSH2 0x1C PUSH0 CODECOPY PUSH0 RETURN INVALID PUSH1 0x80 PUSH1 0x40 MSTORE CALLVALUE DUP1 ISZERO PUSH2 0xF JUMPI PUSH0 DUP1 REVERT JUMPDEST POP PUSH1 0x4 CALLDATASIZE LT PUSH2 0x34 JUMPI PUSH0 CALLDATALOAD PUSH1 0xE0 SHR DUP1 PUSH4 0x3BB43FF EQ PUSH2 0x38 JUMPI DUP1 PUSH4 0x3B8226FB EQ PUSH2 0x42 JUMPI JUMPDEST PUSH0 DUP1 REVERT JUMPDEST PUSH2 0x40 PUSH2 0x72 JUMP JUMPDEST STOP JUMPDEST PUSH2 0x5C PUSH1 0x4 DUP1 CALLDATASIZE SUB DUP2 ADD SWAP1 PUSH2 0x57 SWAP2 SWAP1 PUSH2 0x12E JUMP JUMPDEST PUSH2 0xD0 JUMP JUMPDEST PUSH1 0x40 MLOAD PUSH2 0x69 SWAP2 SWAP1 PUSH2 0x1A5 JUMP JUMPDEST PUSH1 0x40 MLOAD DUP1 SWAP2 SUB SWAP1 RETURN JUMPDEST PUSH0 PUSH1 0xA SWAP1 POP PUSH0 PUSH1 0x5 SWAP1 POP PUSH0 DUP3 SWAP1 POP PUSH0 PUSH1 0x14 SWAP1 POP PUSH0 PUSH2 0x90 DUP6 DUP4 PUSH2 0xD0 JUMP JUMPDEST SWAP1 POP PUSH32 0x7D403D0632AB94FAAD3C3385C5C1C083D17D457521C9C0E26A523E45798DD14F DUP2 PUSH1 0x40 MLOAD PUSH2 0xC1 SWAP2 SWAP1 PUSH2 0x1CD JUMP JUMPDEST PUSH1 0x40 MLOAD DUP1 SWAP2 SUB SWAP1 LOG1 POP POP POP POP POP JUMP JUMPDEST PUSH0 DUP2 DUP4 PUSH2 0xDD SWAP2 SWAP1 PUSH2 0x213 JUMP JUMPDEST SWAP1 POP SWAP3 SWAP2 POP POP JUMP JUMPDEST PUSH0 DUP1 REVERT JUMPDEST PUSH0 PUSH16 0xFFFFFFFFFFFFFFFFFFFFFFFFFFFFFFFF DUP3 AND SWAP1 POP SWAP2 SWAP1 POP JUMP JUMPDEST PUSH2 0x10D DUP2 PUSH2 0xE9 JUMP JUMPDEST DUP2 EQ PUSH2 0x117 JUMPI PUSH0 DUP1 REVERT JUMPDEST POP JUMP JUMPDEST PUSH0 DUP2 CALLDATALOAD SWAP1 POP PUSH2 0x128 DUP2 PUSH2 0x104 JUMP JUMPDEST SWAP3 SWAP2 POP POP JUMP JUMPDEST PUSH0 DUP1 PUSH1 0x40 DUP4 DUP6 SUB SLT ISZERO PUSH2 0x144 JUMPI PUSH2 0x143 PUSH2 0xE5 JUMP JUMPDEST JUMPDEST PUSH0 PUSH2 0x151 DUP6 DUP3 DUP7 ADD PUSH2 0x11A JUMP JUMPDEST SWAP3 POP POP PUSH1 0x20 PUSH2 0x162 DUP6 DUP3 DUP7 ADD PUSH2 0x11A JUMP JUMPDEST SWAP2 POP POP SWAP3 POP SWAP3 SWAP1 POP JUMP JUMPDEST PUSH0 DUP2 SWAP1 POP SWAP2 SWAP1 POP JUMP JUMPDEST PUSH0 PUSH2 0x18F PUSH2 0x18A PUSH2 0x185 DUP5 PUSH2 0xE9 JUMP JUMPDEST PUSH2 0x16C JUMP JUMPDEST PUSH2 0xE9 JUMP JUMPDEST SWAP1 POP SWAP2 SWAP1 POP JUMP JUMPDEST PUSH2 0x19F DUP2 PUSH2 0x175 JUMP JUMPDEST DUP3 MSTORE POP POP JUMP JUMPDEST PUSH0 PUSH1 0x20 DUP3 ADD SWAP1 POP PUSH2 0x1B8 PUSH0 DUP4 ADD DUP5 PUSH2 0x196 JUMP JUMPDEST SWAP3 SWAP2 POP POP JUMP JUMPDEST PUSH2 0x1C7 DUP2 PUSH2 0xE9 JUMP JUMPDEST DUP3 MSTORE POP POP JUMP JUMPDEST PUSH0 PUSH1 0x20 DUP3 ADD SWAP1 POP PUSH2 0x1E0 PUSH0 DUP4 ADD DUP5 PUSH2 0x1BE JUMP JUMPDEST SWAP3 SWAP2 POP POP JUMP JUMPDEST PUSH32 0x4E487B7100000000000000000000000000000000000000000000000000000000 PUSH0 MSTORE PUSH1 0x11 PUSH1 0x4 MSTORE PUSH1 0x24 PUSH0 REVERT JUMPDEST PUSH0 PUSH2 0x21D DUP3 PUSH2 0xE9 JUMP JUMPDEST SWAP2 POP PUSH2 0x228 DUP4 PUSH2 0xE9 JUMP JUMPDEST SWAP3 POP DUP3 DUP3 ADD SWAP1 POP PUSH16 0xFFFFFFFFFFFFFFFFFFFFFFFFFFFFFFFF DUP2 GT ISZERO PUSH2 0x250 JUMPI PUSH2 0x24F PUSH2 0x1E6 JUMP JUMPDEST JUMPDEST SWAP3 SWAP2 POP POP JUMP INVALID LOG2 PUSH5 0x6970667358 0x22 SLT KECCAK256 0xD7 0xD6 0xC7 SWAP5 SGT 0xAF CALLVALUE MOD PUSH23 0x3AD89E97CA611C079BA98F208499916BFCBA8D030D7F59 PUSH5 0x736F6C6343 STOP ADDMOD NOT STOP CALLER "
		},
		"gasEstimates": {
			"creation": {
				"codeDepositCost": "130400",
				"executionCost": "175",
				"totalCost": "130575"
			},
			"external": {
				"addWeight(uint128,uint128)": "infinite",
				"testCustomType()": "infinite"
			}
		},
		"methodIdentifiers": {
			"addWeight(uint128,uint128)": "3b8226fb",
			"testCustomType()": "03bb43ff"
		}
	},
	"abi": [
		{
			"anonymous": false,
			"inputs": [
				{
					"indexed": false,
					"internalType": "string",
					"name": "msg",
					"type": "string"
				}
			],
			"name": "Log",
			"type": "event"
		},
		{
			"anonymous": false,
			"inputs": [
				{
					"indexed": false,
					"internalType": "uint128",
					"name": "",
					"type": "uint128"
				}
			],
			"name": "Log",
			"type": "event"
		},
		{
			"inputs": [
				{
					"internalType": "CustomType.Weight",
					"name": "w1",
					"type": "uint128"
				},
				{
					"internalType": "CustomType.Weight",
					"name": "w2",
					"type": "uint128"
				}
			],
			"name": "addWeight",
			"outputs": [
				{
					"internalType": "CustomType.Weight",
					"name": "",
					"type": "uint128"
				}
			],
			"stateMutability": "pure",
			"type": "function"
		},
		{
			"inputs": [],
			"name": "testCustomType",
			"outputs": [],
			"stateMutability": "nonpayable",
			"type": "function"
		}
	]
}