{
	"data": {
		"bytecode": {
			"linkReferences": {},
			"object": "6080604052348015600e575f80fd5b5061017f8061001c5f395ff3fe608060405234801561000f575f80fd5b5060043610610029575f3560e01c80636a2232e21461002d575b5f80fd5b610035610037565b005b5f805b600a81101561006757808261004f9190610116565b9150600581031561006757808060010191505061003a565b505f5b600a811015610087576001816100809190610116565b905061006a565b5f5b6001816100969190610116565b9050600a8110610089575f5b600a8110156100da575f5b60058110156100cc5760028103156100cc5780806001019150506100ad565b5080806001019150506100a2565b50505050565b5f819050919050565b7f4e487b71000000000000000000000000000000000000000000000000000000005f52601160045260245ffd5b5f610120826100e0565b915061012b836100e0565b9250828201905080821115610143576101426100e9565b5b9291505056fea2646970667358221220921149a386cd5fefb6e7b897e74d9a95a2fb5272cad29f5927bf8dc757d7d6a664736f6c63430008190033",
			"opcodes": "PUSH1 0x80 PUSH1 0x40 MSTORE CALLVALUE DUP1 ISZERO PUSH1 0xE JUMPI PUSH0 DUP1 REVERT JUMPDEST POP PUSH2 0x17F DUP1 PUSH2 0x1C PUSH0 CODECOPY PUSH0 RETURN INVALID PUSH1 0x80 PUSH1 0x40 MSTORE CALLVALUE DUP1 ISZERO PUSH2 0xF JUMPI PUSH0 DUP1 REVERT JUMPDEST POP PUSH1 0x4 CALLDATASIZE LT PUSH2 0x29 JUMPI PUSH0 CALLDATALOAD PUSH1 0xE0 SHR DUP1 PUSH4 0x6A2232E2 EQ PUSH2 0x2D JUMPI JUMPDEST PUSH0 DUP1 REVERT JUMPDEST PUSH2 0x35 PUSH2 0x37 JUMP JUMPDEST STOP JUMPDEST PUSH0 DUP1 JUMPDEST PUSH1 0xA DUP2 LT ISZERO PUSH2 0x67 JUMPI DUP1 DUP3 PUSH2 0x4F SWAP2 SWAP1 PUSH2 0x116 JUMP JUMPDEST SWAP2 POP PUSH1 0x5 DUP2 SUB ISZERO PUSH2 0x67 JUMPI DUP1 DUP1 PUSH1 0x1 ADD SWAP2 POP POP PUSH2 0x3A JUMP JUMPDEST POP PUSH0 JUMPDEST PUSH1 0xA DUP2 LT ISZERO PUSH2 0x87 JUMPI PUSH1 0x1 DUP2 PUSH2 0x80 SWAP2 SWAP1 PUSH2 0x116 JUMP JUMPDEST SWAP1 POP PUSH2 0x6A JUMP JUMPDEST PUSH0 JUMPDEST PUSH1 0x1 DUP2 PUSH2 0x96 SWAP2 SWAP1 PUSH2 0x116 JUMP JUMPDEST SWAP1 POP PUSH1 0xA DUP2 LT PUSH2 0x89 JUMPI PUSH0 JUMPDEST PUSH1 0xA DUP2 LT ISZERO PUSH2 0xDA JUMPI PUSH0 JUMPDEST PUSH1 0x5 DUP2 LT ISZERO PUSH2 0xCC JUMPI PUSH1 0x2 DUP2 SUB ISZERO PUSH2 0xCC JUMPI DUP1 DUP1 PUSH1 0x1 ADD SWAP2 POP POP PUSH2 0xAD JUMP JUMPDEST POP DUP1 DUP1 PUSH1 0x1 ADD SWAP2 POP POP PUSH2 0xA2 JUMP JUMPDEST POP POP POP POP JUMP JUMPDEST PUSH0 DUP2 SWAP1 POP SWAP2 SWAP1 POP JUMP JUMPDEST PUSH32 0x4E487B7100000000000000000000000000000000000000000000000000000000 PUSH0 MSTORE PUSH1 0x11 PUSH1 0x4 MSTORE PUSH1 0x24 PUSH0 REVERT JUMPDEST PUSH0 PUSH2 0x120 DUP3 PUSH2 0xE0 JUMP JUMPDEST SWAP2 POP PUSH2 0x12B DUP4 PUSH2 0xE0 JUMP JUMPDEST SWAP3 POP DUP3 DUP3 ADD SWAP1 POP DUP1 DUP3 GT ISZERO PUSH2 0x143 JUMPI PUSH2 0x142 PUSH2 0xE9 JUMP JUMPDEST JUMPDEST SWAP3 SWAP2 POP POP JUMP INVALID LOG2 PUSH5 0x6970667358 0x22 SLT KECCAK256 SWAP3 GT BLOBHASH LOG3 DUP7 0xCD PUSH0 0xEF 0xB6 0xE7 0xB8 SWAP8 0xE7 0x4D SWAP11 SWAP6 LOG2 0xFB MSTORE PUSH19 0xCAD29F5927BF8DC757D7D6A664736F6C634300 ADDMOD NOT STOP CALLER "
		},
		"gasEstimates": {
			"creation": {
				"codeDepositCost": "76600",
				"executionCost": "121",
				"totalCost": "76721"
			},
			"external": {
				"testForWhile()": "infinite"
			}
		},
		"methodIdentifiers": {
			"testForWhile()": "6a2232e2"
		}
	},
	"abi": [
		{
			"inputs": [],
			"name": "testForWhile",
			"outputs": [],
			"stateMutability": "nonpayable",
			"type": "function"
		}
	]
}