{
	"data": {
		"bytecode": {
			"linkReferences": {},
			"object": "6080604052348015600e575f80fd5b506102078061001c5f395ff3fe608060405234801561000f575f80fd5b5060043610610029575f3560e01c8063b8bd717f1461002d575b5f80fd5b610047600480360381019061004291906100d1565b610049565b005b5f6002826100579190610129565b14610097576040517f08c379a000000000000000000000000000000000000000000000000000000000815260040161008e906101b3565b60405180910390fd5b50565b5f80fd5b5f819050919050565b6100b08161009e565b81146100ba575f80fd5b50565b5f813590506100cb816100a7565b92915050565b5f602082840312156100e6576100e561009a565b5b5f6100f3848285016100bd565b91505092915050565b7f4e487b71000000000000000000000000000000000000000000000000000000005f52601260045260245ffd5b5f6101338261009e565b915061013e8361009e565b92508261014e5761014d6100fc565b5b828206905092915050565b5f82825260208201905092915050565b7f616d6f756e742073686f756c64206265206576656e2e000000000000000000005f82015250565b5f61019d601683610159565b91506101a882610169565b602082019050919050565b5f6020820190508181035f8301526101ca81610191565b905091905056fea264697066735822122097924b05380517ea8e5cab4a309ad453cdfaca0fcd6991c4db672acfdbffaecd64736f6c63430008190033",
			"opcodes": "PUSH1 0x80 PUSH1 0x40 MSTORE CALLVALUE DUP1 ISZERO PUSH1 0xE JUMPI PUSH0 DUP1 REVERT JUMPDEST POP PUSH2 0x207 DUP1 PUSH2 0x1C PUSH0 CODECOPY PUSH0 RETURN INVALID PUSH1 0x80 PUSH1 0x40 MSTORE CALLVALUE DUP1 ISZERO PUSH2 0xF JUMPI PUSH0 DUP1 REVERT JUMPDEST POP PUSH1 0x4 CALLDATASIZE LT PUSH2 0x29 JUMPI PUSH0 CALLDATALOAD PUSH1 0xE0 SHR DUP1 PUSH4 0xB8BD717F EQ PUSH2 0x2D JUMPI JUMPDEST PUSH0 DUP1 REVERT JUMPDEST PUSH2 0x47 PUSH1 0x4 DUP1 CALLDATASIZE SUB DUP2 ADD SWAP1 PUSH2 0x42 SWAP2 SWAP1 PUSH2 0xD1 JUMP JUMPDEST PUSH2 0x49 JUMP JUMPDEST STOP JUMPDEST PUSH0 PUSH1 0x2 DUP3 PUSH2 0x57 SWAP2 SWAP1 PUSH2 0x129 JUMP JUMPDEST EQ PUSH2 0x97 JUMPI PUSH1 0x40 MLOAD PUSH32 0x8C379A000000000000000000000000000000000000000000000000000000000 DUP2 MSTORE PUSH1 0x4 ADD PUSH2 0x8E SWAP1 PUSH2 0x1B3 JUMP JUMPDEST PUSH1 0x40 MLOAD DUP1 SWAP2 SUB SWAP1 REVERT JUMPDEST POP JUMP JUMPDEST PUSH0 DUP1 REVERT JUMPDEST PUSH0 DUP2 SWAP1 POP SWAP2 SWAP1 POP JUMP JUMPDEST PUSH2 0xB0 DUP2 PUSH2 0x9E JUMP JUMPDEST DUP2 EQ PUSH2 0xBA JUMPI PUSH0 DUP1 REVERT JUMPDEST POP JUMP JUMPDEST PUSH0 DUP2 CALLDATALOAD SWAP1 POP PUSH2 0xCB DUP2 PUSH2 0xA7 JUMP JUMPDEST SWAP3 SWAP2 POP POP JUMP JUMPDEST PUSH0 PUSH1 0x20 DUP3 DUP5 SUB SLT ISZERO PUSH2 0xE6 JUMPI PUSH2 0xE5 PUSH2 0x9A JUMP JUMPDEST JUMPDEST PUSH0 PUSH2 0xF3 DUP5 DUP3 DUP6 ADD PUSH2 0xBD JUMP JUMPDEST SWAP2 POP POP SWAP3 SWAP2 POP POP JUMP JUMPDEST PUSH32 0x4E487B7100000000000000000000000000000000000000000000000000000000 PUSH0 MSTORE PUSH1 0x12 PUSH1 0x4 MSTORE PUSH1 0x24 PUSH0 REVERT JUMPDEST PUSH0 PUSH2 0x133 DUP3 PUSH2 0x9E JUMP JUMPDEST SWAP2 POP PUSH2 0x13E DUP4 PUSH2 0x9E JUMP JUMPDEST SWAP3 POP DUP3 PUSH2 0x14E JUMPI PUSH2 0x14D PUSH2 0xFC JUMP JUMPDEST JUMPDEST DUP3 DUP3 MOD SWAP1 POP SWAP3 SWAP2 POP POP JUMP JUMPDEST PUSH0 DUP3 DUP3 MSTORE PUSH1 0x20 DUP3 ADD SWAP1 POP SWAP3 SWAP2 POP POP JUMP JUMPDEST PUSH32 0x616D6F756E742073686F756C64206265206576656E2E00000000000000000000 PUSH0 DUP3 ADD MSTORE POP JUMP JUMPDEST PUSH0 PUSH2 0x19D PUSH1 0x16 DUP4 PUSH2 0x159 JUMP JUMPDEST SWAP2 POP PUSH2 0x1A8 DUP3 PUSH2 0x169 JUMP JUMPDEST PUSH1 0x20 DUP3 ADD SWAP1 POP SWAP2 SWAP1 POP JUMP JUMPDEST PUSH0 PUSH1 0x20 DUP3 ADD SWAP1 POP DUP2 DUP2 SUB PUSH0 DUP4 ADD MSTORE PUSH2 0x1CA DUP2 PUSH2 0x191 JUMP JUMPDEST SWAP1 POP SWAP2 SWAP1 POP JUMP INVALID LOG2 PUSH5 0x6970667358 0x22 SLT KECCAK256 SWAP8 SWAP3 0x4B SDIV CODESIZE SDIV OR 0xEA DUP15 TLOAD 0xAB BLOBBASEFEE ADDRESS SWAP11 0xD4 MSTORE8 0xCD STATICCALL 0xCA 0xF 0xCD PUSH10 0x91C4DB672ACFDBFFAECD PUSH5 0x736F6C6343 STOP ADDMOD NOT STOP CALLER "
		},
		"gasEstimates": {
			"creation": {
				"codeDepositCost": "103800",
				"executionCost": "151",
				"totalCost": "103951"
			},
			"external": {
				"testRequire(uint256)": "infinite"
			}
		},
		"methodIdentifiers": {
			"testRequire(uint256)": "b8bd717f"
		}
	},
	"abi": [
		{
			"inputs": [
				{
					"internalType": "uint256",
					"name": "amount",
					"type": "uint256"
				}
			],
			"name": "testRequire",
			"outputs": [],
			"stateMutability": "nonpayable",
			"type": "function"
		}
	]
}